:100000000C94E2010C940A020C940A020C940A0269
:100010000C94C3180C940A020C940A020C948F1AC4
:100020000C940A020C940A020C94B21C0C940A025E
:100030000C940A020C9475200C94B7200C940A02BC
:100040000C940A020C940A020C940A020C94461FA7
:100050000C940A023E2042204220422042204220AC
:1000600042204220651F422042204220422042205E
:1000700042204220651F422042204220422042204E
:10008000422042206B1F4220422042204220422038
:10009000422042208E1F4220422042204220422005
:1000A000422042206B1F4220422042204220422018
:1000B00042204220941F42204220422042204220DF
:1000C000422042209A1F42204220422042204220C9
:1000D00042204220AB1F42204220422042204220A8
:1000E00042204220D11F4220422042204220422072
:1000F00042204220A01F4220422042204220422093
:1001000042204220B71F422042204220422042206B
:1001100042204220D41F422042204220422042203E
:1001200042204220D41F422042204220422042202E
:1001300042204220D41F422042204220422042201E
:1001400042204220D41F422042204220422042200E
:1001500042204220DC1F42204220422042204220F6
:10016000422042200A2042204220422042204220B7
:1001700042204220DC1F42204220422042204220D6
:10018000422042200A204220422042204220422097
:1001900042204220F11F42204220422042204220A1
:1001A000422042200D204220422042204220422074
:1001B000422042200D204220422042204220422064
:1001C000422042202220422042204220422042203F
:1001D0004220422039204220422042204220422018
:1001E00042204220392005A84CCDB2D44EB9383631
:1001F000A9020C50B9918688083CA6AAAA2ABE007A
:100200000000803F434D505331313A200074696DF6
:10021000656F7574006E6F2061636B000D0A004599
:1002200052524F523A2000476F6C64626F617264A1
:100230003A2069326320706F7274657870616E6401
:100240006572206572726F7200476F6C64626F61D5
:1002500072643A2069326320706F727465787061DD
:100260006E646572206572726F7200656E642069DB
:100270003263207363616E0D0A0020756E6B6E6FC2
:10028000776E0D0A0020506F7274657870616E642D
:1002900065720D0A00204C617365720D0A002055CD
:1002A0006C747261736368616C6C0D0A0020506934
:1002B00078790D0A00204B6F6D706173730D0A0021
:1002C00020557372696E670D0A0020202000737438
:1002D00061727420693263207363616E0D0A004994
:1002E00032432073686F7274004932432063617037
:1002F000000D0A004552524F523A2000506F72745E
:10030000657870616E64657220636F6E6E6563748C
:10031000696F6E206572726F7200506F72746578CB
:1003200070616E64657220636F6E6E656374696F71
:100330006E206572726F72000D0A004552524F5264
:100340003A20005352462077726974650053524632
:100350002074696D656F7574005352462065727222
:100360006F72005352462074696D656F7574005347
:100370005246303820696E6974000D0A00455252A9
:100380004F523A2000555352494E473A20006E6F63
:100390002061636B000D0A004552524F523A200013
:1003A000506978793A206932632074696D656F7598
:1003B00074000D0A004552524F523A200000851A2F
:1003C000DF23092411241FBECFE5D8E0DEBFCDBF57
:1003D00011E0A0E6B0E0E0E6FEE502C005900D9277
:1003E000A63EB107D9F724E0A6EEB1E001C01D9208
:1003F000AE3EB207E1F711E0C1EED1E004C02197B3
:10040000FE010E94D72CCF3DD107C9F70E949E2341
:100410000C94232F0C9400000E9483264AE750E09E
:1004200062E070E080E090E00E94FB104BE850E05A
:1004300060E070E081E090E00E94FB1041E950E054
:1004400060E070E082E090E00E94FB104AE950E03A
:1004500060E070E083E090E00E94FB1045EA50E02D
:1004600063E170E08091E5049091E6040E94FB1046
:100470004091E5045091E60463E170E080E090E093
:100480000E946E1180918004882351F08091E504D0
:100490009091E60401979093E6048093E50444C0AC
:1004A00080918204882351F08091E5049091E604C4
:1004B00001969093E6048093E50436C080917F0412
:1004C000882391F18091E5049091E60481309105B3
:1004D00021F481E08093E90427C0029799F48BE02E
:1004E00090E0909375008093740081E090E0909389
:1004F000E6048093E50468EC70E080E090E00E9400
:100500001C1D12C08EE090E09093750080937400E3
:1005100081E090E09093E6048093E50468EC70E05D
:1005200080E090E00E941C1D8091E5049091E6041B
:100530008430910539F483E090E09093E604809351
:10054000E50408951816190634F081E090E09093C0
:10055000E6048093E504089547EA50E060E070E027
:1005600080E090E00E94FB1041EB50E06DE070E015
:1005700080E090E00E94FB1046EB50E060E070E00D
:1005800081E090E00E94FB104CEB50E060E070E0F6
:1005900082E090E00E94FB1041EC50E060E070E0EF
:1005A00083E090E00E94FB1045EA50E063E170E0D8
:1005B0008091E5049091E6040E94FB1080918004F4
:1005C000882351F08091E5049091E604019790937F
:1005D000E6048093E50484C080918204882351F06E
:1005E0008091E5049091E60401969093E60480934F
:1005F000E50476C080918104882399F08CE090E036
:10060000909375008093740068EC70E080E090E057
:100610000E941C1D81E090E09093E6048093E50425
:10062000089580918304882399F08CE090E0909362
:1006300075008093740068EC70E080E090E00E94A8
:100640001C1D81E090E09093E6048093E5040895FA
:1006500080917F04882371F18091E5049091E604F4
:100660008130910559F4109275001092740068EC75
:1006700070E080E090E00E941C1D32C0029769F497
:1006800085E090E0909375008093740068EC70E0D2
:1006900080E090E00E941C1D23C084E090E09093D5
:1006A00075008093740068EC70E080E090E00E9438
:1006B0001C1D16C080918604882391F08AE090E08A
:1006C000909375008093740082E090E09093E6042C
:1006D0008093E50464EF71E080E090E00E941C1DCF
:1006E0008091E5049091E604843091053CF083E02C
:1006F00090E09093E6048093E50408951816190697
:1007000034F081E090E09093E6048093E50408954E
:100710004DEC50E065E070E080E090E00E94FB105E
:1007200047ED50E060E170E080E090E00E94FB1057
:100730004CED50E060E070E081E090E00E94FB1042
:1007400044EE50E060E070E082E090E00E94FB1038
:100750004CEE50E060E070E083E090E00E94FB101F
:1007600045EA50E063E170E08091E5049091E60491
:100770000E94FB1080918004882351F08091E50451
:100780009091E60401979093E6048093E50486C077
:1007900080918104882399F08BE090E0909375001C
:1007A0008093740068EC70E080E090E00E941C1D73
:1007B00081E090E09093E6048093E50408958091B1
:1007C0008204882351F08091E5049091E60401961B
:1007D0009093E6048093E50461C0809183048823AC
:1007E00099F08BE090E0909375008093740068EC32
:1007F00070E080E090E00E941C1D81E090E090930A
:10080000E6048093E504089580917F04882381F1B4
:100810008091E5049091E6048130910569F483E0CC
:1008200090E0909375008093740068EC70E080E035
:1008300090E00E941C1D32C0029769F486E090E0AF
:10084000909375008093740068EC70E080E090E015
:100850000E941C1D23C087E090E090937500809358
:10086000740068EC70E080E090E00E941C1D16C0EF
:1008700080918604882391F08AE090E0909375003F
:100880008093740082E090E09093E6048093E50406
:1008900064EF71E080E090E00E941C1D8091E5040F
:1008A0009091E604843091053CF083E090E09093D1
:1008B000E6048093E50408951816190634F081E0E3
:1008C00090E09093E6048093E50408950F931F93BE
:1008D000CF93DF930E94131D0091E1041091E20475
:1008E0002091E3043091E404DC01CB01801B910BE7
:1008F000A20BB30B893E9340A105B10560F00E94A5
:10090000BC100E94131D6093E1047093E204809375
:10091000E3049093E40480918604882391F08BE0B3
:1009200090E0909375008093740081E090E0909344
:10093000E6048093E50464EF71E080E090E00E94BB
:100940001C1D8091740090917500009709F0BFC044
:100950008091850481115BC680917F04811110C054
:100960008091800481110CC080918104811108C0A4
:1009700080918204811104C080918304882361F0F6
:1009800081E090E0909375008093740068EC70E0D3
:1009900080E090E00E941C1D44EF50E067E070E0B2
:1009A00080E090E00E94FB1040E050E064E070E0E6
:1009B00081E090E00E946E1141E050E06BE070E059
:1009C00081E090E00E946E1142E050E064E070E04F
:1009D00082E090E00E946E1143E050E06BE070E036
:1009E00082E090E00E946E1144E050E064E070E02C
:1009F00083E090E00E946E1145E050E06BE070E013
:100A000083E090E00E946E1149E151E065E070E002
:100A100081E090E00E94FB1049E151E06CE070E061
:100A200081E090E00E94FB1049E151E065E070E058
:100A300082E090E00E94FB1049E151E06CE070E040
:100A400082E090E00E94FB1049E151E065E070E037
:100A500083E090E00E94FB1049E151E06CE070E01F
:100A600083E090E00E94FB10C7EAD4E0488150E0A8
:100A700066E070E081E090E00E946E11498150E0F4
:100A80006DE070E081E090E00E946E114A8150E0DC
:100A900066E070E082E090E00E946E114B8150E0D1
:100AA0006DE070E082E090E00E946E114C8150E0B9
:100AB00066E070E083E090E00E946E114D8150E0AE
:100AC0006DE070E083E090E00E946E11B2C581306D
:100AD000910509F0BFC08091850481119EC5809168
:100AE0007F04811110C08091800481110CC080911D
:100AF0008104811108C080918204811104C0809119
:100B00008304882361F082E090E0909375008093E5
:100B1000740068EC70E080E090E00E941C1D44EFDF
:100B200050E067E070E080E090E00E94FB1046E05B
:100B300050E064E070E081E090E00E946E1147E0D8
:100B400050E06BE070E081E090E00E946E1148E0C0
:100B500050E064E070E082E090E00E946E1149E0B5
:100B600050E06BE070E082E090E00E946E114AE09D
:100B700050E064E070E083E090E00E946E114BE092
:100B800050E06BE070E083E090E00E946E1149E17C
:100B900051E065E070E081E090E00E94FB1049E1E7
:100BA00051E06CE070E081E090E00E94FB1049E1D0
:100BB00051E065E070E082E090E00E94FB1049E1C6
:100BC00051E06CE070E082E090E00E94FB1049E1AF
:100BD00051E066E070E083E090E00E94FB1049E1A4
:100BE00051E06DE070E083E090E00E94FB10C7EA06
:100BF000D4E04E8150E066E070E081E090E00E9439
:100C00006E114F8150E06DE070E081E090E00E9455
:100C10006E11488550E066E070E082E090E00E944E
:100C20006E11498550E06DE070E082E090E00E9436
:100C30006E114A8550E067E070E083E090E00E942A
:100C40006E114B8550E06EE070E083E090E00E9412
:100C50006E11EFC48230910509F0CAC280918504FB
:100C60008111E1C480917F04811110C080918004C2
:100C700081110CC080918104811108C0809182048F
:100C8000811104C080918304882351F01092750073
:100C90001092740068EC70E080E090E00E941C1DEF
:100CA00044EF50E067E070E080E090E00E94FB10CD
:100CB0004CE050E063E070E082E090E00E946E1152
:100CC0004DE050E06AE070E082E090E00E946E113A
:100CD0004EE050E063E070E083E090E00E946E112F
:100CE0004FE050E06AE070E083E090E00E946E1117
:100CF00049E151E065E070E082E090E00E94FB1085
:100D000049E151E06CE070E082E090E00E94FB106D
:100D100049E151E065E070E083E090E00E94FB1063
:100D200049E151E06CE070E083E090E00E94FB104C
:100D3000C7EAD4E04C8550E066E070E082E090E0E5
:100D40000E946E114D8550E06DE070E082E090E011
:100D50000E946E114E8550E066E070E083E090E006
:100D60000E946E114F8550E06DE070E083E090E0EE
:100D70000E946E115EC48091800481110CC080912C
:100D80008104811108C080918204811104C0809186
:100D90008304882361F081E090E090937500809354
:100DA000740068EC70E080E090E00E941C1D44EF4D
:100DB00050E067E070E080E090E00E94FB1040E0CF
:100DC00050E064E070E081E090E00E946E1141E04C
:100DD00050E06BE070E081E090E00E946E1142E034
:100DE00050E064E070E082E090E00E946E1143E029
:100DF00050E06BE070E082E090E00E946E1144E011
:100E000050E064E070E083E090E00E946E1145E005
:100E100050E06BE070E083E090E00E946E1149E1E9
:100E200051E065E070E081E090E00E94FB1049E154
:100E300051E06CE070E081E090E00E94FB1049E13D
:100E400051E065E070E082E090E00E94FB1049E133
:100E500051E06CE070E082E090E00E94FB1049E11C
:100E600051E065E070E083E090E00E94FB1049E112
:100E700051E06CE070E083E090E00E94FB1060E0E5
:100E800081E594E00E94A821482F50E066E070E0E0
:100E900081E090E00E946E1161E081E594E00E94A3
:100EA000A821482F50E06DE070E081E090E00E94C2
:100EB0006E1162E081E594E00E94A821482F50E085
:100EC00066E070E082E090E00E946E1163E081E5F0
:100ED00094E00E94A821482F50E06DE070E082E08D
:100EE00090E00E946E1164E081E594E00E94A821E8
:100EF000482F50E066E070E083E090E00E946E11C1
:100F000065E081E594E00E94A821482F50E06DE063
:100F100070E083E090E00E946E118BC380918004AA
:100F200081110CC080918104811108C080918204DC
:100F3000811104C080918304882361F082E090E0F5
:100F4000909375008093740068EC70E080E090E00E
:100F50000E941C1D44EF50E067E070E080E090E0EC
:100F60000E94FB1046E050E064E070E081E090E019
:100F70000E946E1147E050E06BE070E081E090E08D
:100F80000E946E1148E050E064E070E082E090E082
:100F90000E946E1149E050E06BE070E082E090E06A
:100FA0000E946E114AE050E063E070E083E090E060
:100FB0000E946E114BE050E06AE070E083E090E048
:100FC0000E946E1149E151E065E070E081E090E03F
:100FD0000E94FB1049E151E06CE070E081E090E09C
:100FE0000E94FB1049E151E065E070E082E090E092
:100FF0000E94FB1049E151E06CE070E082E090E07B
:101000000E94FB1049E151E065E070E083E090E070
:101010000E94FB1049E151E06CE070E083E090E059
:101020000E94FB1066E081E594E00E94A821482F11
:1010300050E066E070E081E090E00E946E1167E0B1
:1010400081E594E00E94A821482F50E06DE070E017
:1010500081E090E00E946E1168E081E594E00E94DA
:10106000A821482F50E066E070E082E090E00E9406
:101070006E1169E081E594E00E94A821482F50E0BC
:101080006DE070E082E090E00E946E116AE081E520
:1010900094E00E94A821482F50E066E070E083E0D1
:1010A00090E00E946E116BE081E594E00E94A8211F
:1010B000482F50E06DE070E083E090E00E946E11F8
:1010C000B8C28091800481110CC08091810481118B
:1010D00008C080918204811104C080918304882318
:1010E00051F0109275001092740068EC70E080E08E
:1010F00090E00E941C1D44EF50E067E070E080E04B
:1011000090E00E94FB104CE050E063E070E082E071
:1011100090E00E946E114DE050E06AE070E082E0E5
:1011200090E00E946E114EE050E063E070E083E0DA
:1011300090E00E946E114FE050E06AE070E083E0C2
:1011400090E00E946E1149E151E065E070E082E0BC
:1011500090E00E94FB1049E151E06CE070E082E019
:1011600090E00E94FB1049E151E065E070E083E00F
:1011700090E00E94FB1049E151E06CE070E083E0F8
:1011800090E00E94FB106CE081E594E00E94A821B1
:10119000482F50E066E070E082E090E00E946E111F
:1011A0006DE081E594E00E94A821482F50E06DE0B9
:1011B00070E082E090E00E946E116EE081E594E0C4
:1011C0000E94A821482F50E066E070E083E090E0A4
:1011D0000E946E116FE081E594E00E94A821482FE3
:1011E00050E06DE070E083E090E00E946E1121C25B
:1011F0008330910509F057C04AEF50E065E070E098
:1012000080E090E00E94FB104091A5045091A6045C
:1012100060E070E081E090E00E946E1142E051E0F9
:1012200060E070E082E090E00E94FB1045EA50E050
:1012300063E170E082E090E00E94FB1080917F0407
:10124000882309F4F6C183E494E00E94780F68EEE5
:1012500073E080E090E00E941C1D80918604811163
:101260000DC0CFE7D4E00E94832641E061E082E533
:1012700094E00E947C118F818823A9F383E494E099
:101280000E94890F64EF71E080E090E00E941C1DD5
:1012900040E061E082E594E00E947C1183E494E008
:1012A0000E940E0FC6C184309105D9F44CE051E084
:1012B00064E070E080E090E00E94FB1048E151E0C3
:1012C00060E070E082E090E00E94FB104091A10499
:1012D0005091A20462E070E082E090E00E946E1102
:1012E000A8C18530910509F085C04BE151E066E069
:1012F00070E080E090E00E94FB1040E251E060E08E
:1013000070E081E090E00E94FB1040919F045091BA
:10131000A00468E070E081E090E00E946E1148E275
:1013200051E060E070E082E090E00E94FB104EE24D
:1013300051E064E070E082E090E00E94FB10409198
:10134000990450919A0466E070E082E090E00E9477
:101350006E1141E351E06AE070E082E090E00E94AB
:10136000FB1040919504509196046CE070E082E08F
:1013700090E00E946E114091880450E060E170E0BE
:1013800082E090E00E946E1144E351E060E070E082
:1013900083E090E00E94FB104EE251E064E070E0D8
:1013A00083E090E00E94FB104091910450919204E0
:1013B00066E070E083E090E00E946E1141E351E04E
:1013C0006AE070E083E090E00E94FB1040918F049F
:1013D000509190046CE070E083E090E00E946E1108
:1013E00040918E0450E060E170E083E090E00E9464
:1013F0006E111FC18630910509F0E3C049E351E049
:1014000066E070E080E090E00E94FB1040E050E079
:1014100060E070E081E090E00E946E1149E151E0EF
:1014200061E070E081E090E00E94FB10CFE7D4E043
:10143000488150E062E070E081E090E00E946E112F
:1014400041E050E060E070E082E090E00E946E11C8
:1014500049E151E061E070E082E090E00E94FB1021
:10146000498150E062E070E082E090E00E946E11FD
:1014700042E050E060E070E083E090E00E946E1196
:1014800049E151E061E070E083E090E00E94FB10F0
:101490004A8150E062E070E083E090E00E946E11CB
:1014A00043E050E068E070E081E090E00E946E115F
:1014B00049E151E069E070E081E090E00E94FB10BA
:1014C0004B8150E06AE070E081E090E00E946E1194
:1014D00044E050E068E070E082E090E00E946E112D
:1014E00049E151E069E070E082E090E00E94FB1089
:1014F0004C8150E06AE070E082E090E00E946E1162
:1015000045E050E068E070E083E090E00E946E11FA
:1015100049E151E069E070E083E090E00E94FB1057
:101520004D8150E06AE070E083E090E00E946E112F
:1015300046E050E061E170E081E090E00E946E11D1
:1015400049E151E062E170E081E090E00E94FB102F
:101550004E8150E063E170E081E090E00E946E1106
:1015600047E050E061E170E082E090E00E946E119F
:1015700049E151E062E170E082E090E00E94FB10FE
:101580004F8150E063E170E082E090E00E946E11D4
:1015900048E050E061E170E083E090E00E946E116D
:1015A00049E151E062E170E083E090E00E94FB10CD
:1015B000488550E063E170E083E090E00E946E11A6
:1015C00038C00797B1F541E451E063E070E080E096
:1015D00090E00E94FB10409174045091750463E008
:1015E00070E081E090E00E946E114FE451E065E010
:1015F00070E082E090E00E94FB104091880450E08F
:1016000065E070E083E090E00E946E1112C080916E
:101610007F04882309F4AFCBBECB80917F0488235D
:1016200009F47CCC8BCC80917F04882309F449CDCC
:1016300058CDDF91CF911F910F9108954AE950E065
:1016400063E070E080E090E00E94FB1048E551E02C
:1016500060E070E081E090E00E94FB1040E651E025
:1016600060E070E082E090E00E94FB1046E651E00E
:1016700060E070E083E090E00E94FB104BE651E0F8
:1016800065E070E083E090E00E94FB104FE651E0DF
:1016900069E070E083E090E00E94FB1045EA50E0D2
:1016A00063E170E08091E5049091E6040E94FB10F4
:1016B00080917F04882381F18091E5049091E60474
:1016C0008130910599F48FE090E0909375008093BC
:1016D000740081E090E09093E6048093E50468EC68
:1016E00070E080E090E00E941C1D54C0029709F059
:1016F00051C08DE090E0909375008093740081E07C
:1017000090E09093E6048093E50468EC70E080E05C
:1017100090E00E941C1D3EC080918004882381F0CF
:101720008091E5049091E60401979093E6048093FC
:10173000E50468EC70E080E090E00E941C1D2AC087
:1017400080918204882381F08091E5049091E604E1
:1017500001969093E6048093E50468EC70E080E0E5
:1017600090E00E941C1D16C080918604882391F091
:101770008AE090E0909375008093740081E090E09F
:101780009093E6048093E50464EF71E080E090E0DC
:101790000E941C1D8091E5049091E6048330910520
:1017A0003CF082E090E09093E6048093E504089595
:1017B0001816190634F081E090E09093E6048093C7
:1017C000E5040895CF92DF92EF92FF9248E551E051
:1017D00065E070E080E090E00E94FB104BE751E094
:1017E00060E070E081E090E00E94FB1041E851E091
:1017F00067E070E081E090E00E94FB104091EC0116
:101800005091ED0169E070E081E090E00E946E117E
:1018100043E851E06CE070E081E090E00E94FB1052
:1018200045E851E060E070E083E090E00E94FB104A
:101830008091EB01882349F04CE851E067E070E0CB
:1018400083E090E00E94FB1008C04FE851E067E0A1
:1018500070E083E090E00E94FB1044E951E060E01A
:1018600070E082E090E00E94FB1040916600509191
:10187000670067E070E082E090E00E946E1145EA48
:1018800050E063E170E08091E5049091E6040E94ED
:10189000FB1080917F048823C1F10E94131D6B010E
:1018A0007C011DC00E9464298091EB01882359F0BE
:1018B00060916600709167008091EC019091ED015C
:1018C0000E94F7240CC0609166007091670040E0B0
:1018D00050E08091EC019091ED010E9410240E9453
:1018E000131DDC01CB018C199D09AE09BF098031A4
:1018F0009742A105B105B0F240E050E060E070E031
:1019000080E090E00E941024A8C080918004882389
:1019100081F08091E5049091E60401979093E604AC
:101920008093E50468EC70E080E090E00E941C1D6C
:1019300094C080918104882389F18091E50490917D
:10194000E6048130910551F48091EC019091ED0114
:101950000A979093ED018093EC0119C083309105B3
:1019600059F48091EB01882319F01092EB010FC01C
:1019700081E08093EB010BC0029749F480916600EF
:10198000909167000A97909367008093660068ECD7
:1019900070E080E090E00E941C1D5FC08091820496
:1019A000882381F08091E5049091E604019690935C
:1019B000E6048093E50468EC70E080E090E00E942B
:1019C0001C1D4BC080918304882389F18091E5041C
:1019D0009091E6048130910551F48091EC01909151
:1019E000ED010A969093ED018093EC0119C08330CC
:1019F000910559F48091EB01882319F01092EB01C5
:101A00000FC081E08093EB010BC0029749F48091F5
:101A10006600909167000A96909367008093660035
:101A200068EC70E080E090E00E941C1D16C0809180
:101A30008604882391F08EE090E090937500809367
:101A4000740081E090E09093E6048093E50468ECF4
:101A500070E080E090E00E941C1D8091E504909170
:101A6000E604843091053CF083E090E09093E60436
:101A70008093E50409C01816190634F081E090E05F
:101A80009093E6048093E504FF90EF90DF90CF9071
:101A9000089540E651E066E070E080E090E00E944A
:101AA000FB104AE951E060E070E081E090E00E94C4
:101AB000FB1045EA50E063E170E08091E50490910D
:101AC000E6040E94FB10409172005091730069E09F
:101AD00070E082E090E00E946E1141E851E067E022
:101AE00070E082E090E00E94FB1043E851E06CE07F
:101AF00070E082E090E00E94FB1045EA51E060E077
:101B000070E083E090E00E94FB1080917F048823C6
:101B1000F1F08091E5049091E604019719F40E9498
:101B2000E22508958091EA01882319F01092EA01D4
:101B300003C081E08093EA0168EC70E080E090E00F
:101B40000E941C1D8091EA010E94F9250895809150
:101B50008104882381F08091720090917300019735
:101B6000909373008093720068EC70E080E090E0E6
:101B70000E941C1D0895809180048823D1F08091DB
:101B8000E5049091E604019739F483E090E09093A6
:101B9000E6048093E50406C081E090E09093E604BB
:101BA0008093E50468EC70E080E090E00E941C1DEA
:101BB000089580918304882381F080917200909130
:101BC00073000196909373008093720068EC70E04C
:101BD00080E090E00E941C1D08958091820488237B
:101BE000D1F08091E5049091E604019739F483E007
:101BF00090E09093E6048093E50406C081E090E0D5
:101C00009093E6048093E50468EC70E080E090E057
:101C10000E941C1D089580918604882391F08EE017
:101C200090E0909375008093740081E090E0909331
:101C3000E6048093E50468EC70E080E090E00E94A8
:101C40001C1D08958091E5049091E6049093E901AC
:101C50008093E80180917400909175009093E70162
:101C60008093E6010E946429809174009091750030
:101C7000883091051CF40E94660422C08A309105C8
:101C800019F40E940C021CC08B30910519F40E94BB
:101C9000AC0216C08C30910519F40E94880310C064
:101CA0008D30910519F40E94490D0AC08E309105BE
:101CB00019F40E941E0B04C00F9711F40E94E20B4E
:101CC0002091E6013091E7018091740090917500B8
:101CD0002817390771F42091E8013091E9018091CA
:101CE000E5049091E6042817390719F480918704D8
:101CF00081110E94BC100895462B47B9806C86B9AB
:101D0000349BFECF84B125B190E0922B0895FC0165
:101D10001182108212820895FC01118210821282B7
:101D20000895CF92DF92EF92FF921F93CF93DF93AC
:101D3000EC0160E670E083EF93E00E94512261E0E5
:101D400083EF93E00E946B2283EF93E00E9467226F
:101D5000182F882391F08FE192E00E94012184E006
:101D600092E00E94012185E192E00E9401218CE134
:101D700092E00E94012110E048C041E050E060E69E
:101D800070E083EF93E00E9402230E94131D6B0119
:101D90007C011EC00E94131DDC01CB018C199D0922
:101DA000AE09BF09893E9340A105B10588F08FE1D6
:101DB00092E00E94012184E092E00E9401218DE0E6
:101DC00092E00E9401218CE192E00E9401211DC05D
:101DD00083EF93E00E94312318161906DCF683EF97
:101DE00093E00E9439232A81222371F028813981CE
:101DF000820F931F8F3F91051CF08F5F910904C0E4
:101E0000992314F481509F4F182F812FDF91CF9188
:101E10001F91FF90EF90DF90CF9008951F93CF9385
:101E2000DF93EC01198218821A821BE020C0CE01D8
:101E30000E94910E282F30E0398328836AE070E0F9
:101E400080E090E00E941C1D115089F48FE192E027
:101E50000E94012184E092E00E9401218EEA91E03B
:101E60000E9401218CE192E00E9401210DC0888135
:101E700099810097E1F220E830E0A901481B590B55
:101E80005983488381E08A83DF91CF911F91089520
:101E9000CF93C62F60E670E083EF93E00E9451225B
:101EA00060E083EF93E00E946B226C2F83EF93E05E
:101EB0000E946B2283EF93E00E946722882381F0C7
:101EC0008FE192E00E94012184E092E00E940121D2
:101ED00085E192E00E9401218CE192E00E940121C3
:101EE00062E370E080E090E00E941C1DCF910895B5
:101EF000CF93DF93EC0160EF0E94480F65EFCE01B6
:101F00000E94480F67EFCE010E94480FDF91CF91EA
:101F1000089568EF0E94480F62E370E080E090E06F
:101F20000E941C1D0895CF93DF9300D000D0CDB741
:101F3000DEB7982F907F8295807F2CE0290F2C832D
:101F4000985F9B839CE0980F9A83885F898341E028
:101F500050E0BE016C5F7F4F8AE40E94A61461E0EE
:101F600070E080E090E00E941C1D41E050E0BE0166
:101F70006D5F7F4F8AE40E94A61461E070E080E00C
:101F800090E00E941C1D41E050E0BE016E5F7F4F5B
:101F90008AE40E94A61461E070E080E090E00E9474
:101FA0001C1D41E050E0BE016F5F7F4F8AE40E943C
:101FB000A61461E070E080E090E00E941C1D0F908C
:101FC0000F900F900F90DF91CF910895CF93DF93F3
:101FD00000D000D0CDB7DEB7982F907F8295807F5C
:101FE0002DE0290F2C83975F9B839DE0980F9A83A8
:101FF000875F898341E050E0BE016C5F7F4F8AE4D8
:102000000E94A61461E070E080E090E00E941C1D38
:1020100041E050E0BE016D5F7F4F8AE40E94A6144C
:1020200061E070E080E090E00E941C1D41E050E023
:10203000BE016E5F7F4F8AE40E94A61461E070E0EB
:1020400080E090E00E941C1D41E050E0BE016F5F07
:102050007F4F8AE40E94A61461E070E080E090E087
:102060000E941C1D0F900F900F900F90DF91CF9149
:1020700008958091EE01882341F0813041F0823053
:1020800041F0833041F494E507C090E005C090E44E
:1020900003C094E101C090E08091EF018058890F66
:1020A0000E94930F0895CF93DF9300D0CDB7DEB792
:1020B0008A838C5F898341E050E0BE016F5F7F4F70
:1020C0008AE40E94A61461E070E080E090E00E9443
:1020D0001C1D41E050E0BE016E5F7F4F8AE40E940C
:1020E000A61461E070E080E090E00E941C1D0F905B
:1020F0000F90DF91CF91089562E370E080E090E06F
:102100000E941C1D80E30E94531061E070E080E09B
:1021100090E00E941C1D80E30E94531061E070E07B
:1021200080E090E00E941C1D80E30E94531061E05B
:1021300070E080E090E00E941C1D80E20E9453103D
:1021400061E070E080E090E00E941C1D88E20E9447
:10215000930F8FE00E94930F86E00E94930F82E01E
:102160000E94930F81E00E94930F1092EF01109252
:10217000EE010E943910089581E00E94930F62E001
:1021800070E080E090E00E941C1D08958831910568
:1021900014F48093EF016430710514F46093EE0140
:1021A0000E94391008950E94E60F8091EF018F5F21
:1021B000883118F48093EF010CC01092EF018091E8
:1021C000EE018F5F843018F48093EE0102C010920C
:1021D000EE010E9439100895CF93DF93EC018881BE
:1021E000882331F021960E94D31089918111FBCF71
:1021F000DF91CF910895CF93DF939C01CB01EA014A
:10220000B9010E94C610CE010E94EC10DF91CF915F
:102210000895CF93DF93EC01992334F48DE20E946B
:10222000D310D195C195D109CE0160E177E20E942A
:10223000A12CD82FC92F662379F080E3860F0E9446
:10224000D3108D2F9C2F68EE73E00E94A12CD82F05
:10225000C92F80E3860F0AC068EE73E00E94A12CAC
:10226000D82FC92F662361F180E3860F0E94D31017
:102270008D2F9C2F64E670E00E94A12CC82FD92FCF
:1022800080E3860F0E94D3108C2F9D2F6AE070E0B0
:102290000E94A12CC82F80E3860F0BC08C2F9D2F8E
:1022A0006AE070E00E94A12CC82F662321F080E331
:1022B000860F0E94D31080E38C0F0E94D3100BC0B6
:1022C00064E670E00E94A12CC82FD92F662331F359
:1022D00080E3860FD7CFDF91CF910895CF93DF931F
:1022E0009C01CB01EA01B9010E94C610CE010E94F7
:1022F0000911DF91CF9108956230D0F441110CC0E3
:1023000025B36E5F81E090E002C0880F991F6A9547
:10231000E2F7822B85BB089525B36E5F81E090E0E4
:1023200002C0880F991F6A95E2F78095822385BBCA
:102330000895623070F4862F442329F06FEF8C5F8C
:102340000E945C1904C060E08C5F0E945C190E94CE
:10235000741A0895623018F595B384B370E06E5F17
:102360007F4F21E030E0062E02C0220F331F0A9477
:10237000E2F7322F3095832384BB85B3822B85BB54
:1023800083B395BB94B3292B24BB90E002C09595F1
:1023900087956A95E2F721E082278170089580E0B1
:1023A0000895683050F4462F60E482E00E947C0E6D
:1023B0009695879596958795089580E00895CF9393
:1023C0006430F8F427B370E06C5F7F4F81E090E0F9
:1023D000062E02C0880F991F0A94E2F7382F309515
:1023E000232327BB98B3892B88BB86B390E002C018
:1023F000959587956A95E2F798B3932398BB81707A
:1024000079C06C3070F4C62F40960E945B1790E044
:102410006CEF6C0F02C0959587956A95E2F7817015
:1024200069C0643108F046C084EF860F843010F52F
:1024300044B32FE0261B30E02C5F3F4F81E090E05B
:10244000022E02C0880F991F0A94E2F7582F509568
:10245000352F342334BB95B3892B85BB83B390E0F0
:1024600002C0959587952A95E2F795B3952395BB7C
:10247000817040C021B3605170E06C5F7F4F81E09C
:1024800090E0062E02C0880F991F0A94E2F7382FB9
:102490003095232321BB92B3892B82BB80B390E07C
:1024A00002C0959587956A95E2F792B3932392BB04
:1024B000817020C06C31E8F42AB3645181E090E06F
:1024C000062E02C0880F991F0A94E2F7382F309524
:1024D00023232ABB9BB3892B8BBB89B390E002C01B
:1024E000959587956A95E2F79BB393239BBB817083
:1024F00001C080E0CF910895CF93DF936430D0F492
:1025000027B36C5F81E090E0A0E0B0E004C0880FEA
:10251000991FAA1FBB1F6A95D2F7282B27BB4423FC
:1025200021F028B3822B88BB67C028B38095822313
:1025300088BB62C06C3050F4EC0160966450CE01F0
:102540000E943D17CE010E94861756C06431C8F51F
:1025500084EF860F8430D8F424B333E1361B81E056
:1025600090E0A0E0B0E004C0880F991FAA1FBB1F35
:102570003A95D2F7282B24BB442321F025B3822B94
:1025800085BB3AC025B38095822385BB35C021B376
:102590006C5081E090E0A0E0B0E004C0880F991F8B
:1025A000AA1FBB1F6A95D2F7282B21BB442321F019
:1025B00022B3822B82BB20C022B38095822382BBB0
:1025C0001BC06C31C8F42AB3645181E090E0A0E0F4
:1025D000B0E004C0880F991FAA1FBB1F6A95D2F7ED
:1025E000282B2ABB442321F02BB3822B8BBB04C0A6
:1025F0002BB3809582238BBBDF91CF9108950F93EE
:102600001F93CF93DF938EEC92E00E940121C1E0F3
:10261000D0E002E002C00F5F21961C2F6C2F83EFE9
:1026200093E00E94472283EF93E00E94672281118A
:102630003CC08AEC92E00E9401214AE050E0BE01D9
:102640008EE293E00E94BB18C43329F480EC92E040
:102650000E940121E0CFC03629F485EB92E00E9470
:102660000121D9CFC43529F48DEA92E00E940121DD
:10267000D2CF80E98C0F803128F48EE992E00E945D
:10268000012113C0C93229F485E992E00E94012199
:10269000C2CF18531C3228F485E892E00E94012131
:1026A00004C08AE792E00E9401210F3708F4B3CFFB
:1026B0008BE692E00E940121DF91CF911F910F9153
:1026C000089568E370E083EF93E00E94512283EF66
:1026D00093E00E946722882371F084EF92E00E94C9
:1026E000012189E492E00E94012181EF92E00E94A1
:1026F000012180E008956FE370E083EF93E00E9492
:10270000512283EF93E00E946722882371F084EFC7
:1027100092E00E94012187E292E00E94012181EF74
:1027200092E00E94012180E0089581E00895CF9217
:10273000DF92EF92FF920F931F93CF936C017894E7
:1027400088E090E00E94DC2084B38C6084BB85B379
:102750008C6085BB8AB3807F8ABB8AB38F708ABB4B
:1027600087B38F7087BB83EF93E00E945023882349
:1027700029F183EF93E00E94532383EF93E00E94BB
:102780005023823068F084EF92E00E94012189EEAC
:1027900092E00E94012181EF92E00E9401210EC08F
:1027A000813061F484EF92E00E9401218FED92E08C
:1027B0000E94012181EF92E00E94012183EF93E0CA
:1027C0000E943C220E942C1A0E94EB146FE3C60167
:1027D00040960E943A17760183E1E80EF11C68E307
:1027E000C7010E943A178601C0E0A7016C2FC801FB
:1027F0000E94EE16CF5F0C5F1F4FC430B1F70E94EE
:10280000011DC6010E946113CF911F910F91FF908E
:10281000EF90DF90CF900895EF92FF920F931F9368
:10282000CF93DF938C01EC017C0180E1E80EF11C79
:10283000CE010E94E9162496CE15DF05C9F7C8011E
:1028400040960E943417C80143960E943417C8016D
:102850000E949713DF91CF911F910F91FF90EF90FE
:1028600008958FEF9FEF06B607FC02C00197D9F7D6
:1028700081B1887F0895846886BF0E9431140895CD
:10288000CF92DF92EF92FF920F931F93CF93DF933C
:10289000C62F662319F0613021F006C000E218E16E
:1028A00005C008E410E402C000E010E00F2EF4E1DF
:1028B000EF2EF12CF02D982F9160D92ED82FDE7F9E
:1028C0000F2EF4E9CF2EF02D80E20E943B148830C9
:1028D00031F0803121F084E886BF80E01FC0C11153
:1028E00002C0D3B903C0C13009F4D3B880E00E945C
:1028F0003B14811791F0801305C081E0E81AF108BC
:10290000C6BE06C0883321F084E986BF80E006C0D9
:102910001E141F04CCF280E001C081E0DF91CF9152
:102920001F910F91FF90EF90DF90CF90089583B9A2
:1029300080E00E943B14883231F091E0803309F04E
:1029400090E0892F01C081E081700895EF92FF929D
:102950000F931F93CF93DF9314161506FCF46115A4
:102960007105F1F07A018B0160E00E944014882328
:10297000C1F0E8010E0D1F1D89910E94971481116D
:1029800007C091B1987F983361F094E996BF09C070
:10299000C017D10789F794E996BF03C081E001C051
:1029A00081E0DF91CF911F910F91FF90EF900895FB
:1029B000789480B393B392959F70807F892B909188
:1029C000F001E92FF0E0EF50FE4F80839F5F90937E
:1029D000F001F894089581B38F7081BB84B38F7038
:1029E00084BB82B3806F82BB85B3806F85BB80E080
:1029F00090E0FC01EF50FE4F108201968F3F910551
:102A0000C1F7089580E090E008950895209168004E
:102A1000222341F090930203809301030E942C1A19
:102A2000109268000895CF93DF932091F9023091BE
:102A3000FA02C091F102D091F2022C173D0709F47D
:102A400062C0AE01421B530B8091690090E0841775
:102A5000950724F4E901C80FD91F0AC06627772714
:102A6000681B790B461757071CF4E901C81BD90BE3
:102A7000DD23B4F441E060E0809101039091020312
:102A80000E943D1740E061E08091010390910203B4
:102A90000E943D176C2F619580E00E945C192CC04C
:102AA0001C161D06ACF440E060E08091010390919B
:102AB00002030E943D1741E061E080910103909183
:102AC00002030E943D176C2F80E00E945C1914C025
:102AD00040E060E080910103909102030E943D1765
:102AE00040E061E080910103909102030E943D1754
:102AF0006C2F80E00E945C19D093FA02C093F90217
:102B000081E08093F0022091FB023091FC02C091A1
:102B1000F302D091F4022C173D0709F462C0AE0114
:102B2000421B530B8091690090E08417950724F4B1
:102B3000E901C80FD91F0AC066277727681B790BE0
:102B4000461757071CF4E901C81BD90BDD23B4F461
:102B500041E062E080910103909102030E943D17E1
:102B600040E063E080910103909102030E943D17D1
:102B70006C2F619581E00E945C192CC01C161D060B
:102B8000ACF440E062E080910103909102030E9466
:102B90003D1741E063E080910103909102030E94A0
:102BA0003D176C2F81E00E945C1914C040E062E088
:102BB00080910103909102030E943D1740E063E081
:102BC00080910103909102030E943D176C2F81E0D8
:102BD0000E945C19D093FC02C093FB0281E08093B9
:102BE000F0022091FD023091FE02C091F502D091D9
:102BF000F6022C173D0709F46CC0AE01421B530BC3
:102C00008091690090E08417950724F4E901C80FCA
:102C1000D91F0AC066277727681B790B4617570705
:102C20001CF4E901C81BD90BDD23B4F441E064E0D6
:102C300080910103909102030E943D1740E065E0FE
:102C400080910103909102030E943D176C2F6195C2
:102C500082E00E945C192CC01C161D06ACF440E0FA
:102C600064E080910103909102030E943D1741E0CE
:102C700065E080910103909102030E943D176C2F43
:102C800082E00E945C1914C040E064E0809101037E
:102C9000909102030E943D1740E065E0809101039E
:102CA000909102030E943D176C2F82E00E945C19F4
:102CB000E9EFF2E0D583C48381E08093F00286815E
:102CC0009781C091F702D091F8028C179D0769F4A3
:102CD00073C08091FF0290910003C091F702D091E0
:102CE000F8028C179D0709F463C0AE01481B590B0D
:102CF0002091690030E02417350724F4EC01C20F5D
:102D0000D31F0AC066277727621B730B4617570726
:102D10001CF4EC01C21BD30BDD23B4F441E066E0EC
:102D200080910103909102030E943D1740E067E00B
:102D300080910103909102030E943D176C2F6195D1
:102D400083E00E945C192CC01C161D06ACF440E008
:102D500066E080910103909102030E943D1741E0DB
:102D600067E080910103909102030E943D176C2F50
:102D700083E00E945C1914C040E066E0809101038A
:102D8000909102030E943D1740E067E080910103AB
:102D9000909102030E943D176C2F83E00E945C1902
:102DA000D0930003C093FF0281E08093F00204C03F
:102DB0008091F002882351F00E94741A80910103DF
:102DC000909102030E9486171092F002DF91CF913A
:102DD0000895FC011082128211820895FF920F93D0
:102DE0001F93CF93DF93EC01F62E8A01CA010E9454
:102DF00006151A830983F88288E28B83DF91CF91CD
:102E00001F910F91FF900895161617067CF4DC01B0
:102E100013962C9130E0621773074CF09B016F3FC3
:102E2000710529F024F02FEF30E001C09B0133231E
:102E30008CF42130BFEF3B075CF0FC01438150E094
:102E40005195419551094217530724F49A0102C044
:102E500021E03FEFDC01EC91F0E0EE0FFF1FEF50BF
:102E6000FD4F318320830895FC01108281E081832E
:102E700012820895FC0162830895FC01208144239D
:102E800051F081E090E002C0880F991F6A95E2F747
:102E9000822B80830AC081E090E002C0880F991FD6
:102EA0006A95E2F78095822380838081821711F0F2
:102EB00081E081830895CF93DF93EC016A8183EFF2
:102EC00093E00E94472241E06A8183EF93E00E94F1
:102ED000FE2283EF93E00E943923888383EF93E0FF
:102EE0000E946722882371F08BE393E00E94012106
:102EF0008AE193E00E94012188E393E00E9401218E
:102F000080E001C08881DF91CF910895CF93DF9356
:102F1000FC012181222331F1EC0183EF93E00E9437
:102F20004D2381111FC06A8183EF93E00E944722E5
:102F300041E050E0BE0183EF93E00E94062383EF5F
:102F400093E00E946722882361F08BE393E00E9464
:102F500001218CEF92E00E94012188E393E00E941E
:102F600001211982DF91CF910895CF92DF92EF92E4
:102F7000FF920F931F93CF93DF9341155105C1F03B
:102F80006A018C01E62EF72EC0E0D0E0D7016D91EA
:102F90007D01D801ED91FC910190F081E02DC801F7
:102FA0000995892B39F02196CC16DD0679F702C0F8
:102FB000C0E0D0E0CE01DF91CF911F910F91FF9043
:102FC000EF90DF90CF9008956115710581F0FB01BE
:102FD00001900020E9F73197AF01461B570BDC0148
:102FE000ED91FC910280F381E02D0995089580E038
:102FF00090E00895DC01ED91FC910190F081E02DCD
:1030000009950895DC01ED91FC910280F381E02D9A
:1030100042E050E06CEB71E0099508950F931F9327
:10302000CF93DF93EC010E94E4178C01CE010E9444
:103030000218800F911FDF91CF911F910F9108957A
:103040008F929F92AF92BF92EF92FF920F931F9336
:10305000CF93DF93CDB7DEB7A1970FB6F894DEBF5D
:103060000FBECDBF7C01CB01BA0119A2223008F4FA
:103070002AE08E010F5D1F4F822E912CA12CB12CC6
:10308000A50194010E94B52CE62F622F732F842F87
:10309000952F01501109EA3010F4E05D01C0E95CA0
:1030A000D801EC93611571058105910549F701156A
:1030B000110591F0F80101900020E9F73197AF0177
:1030C000401B510BD701ED91FC910280F381E02D63
:1030D000B801C701099502C080E090E0A1960FB643
:1030E000F894DEBF0FBECDBFDF91CF911F910F913E
:1030F000FF90EF90BF90AF909F908F900895CF92E8
:10310000DF92EF92FF920F931F93CF93DF93EC0127
:103110006A017B012115310541F4E881F9810190B3
:10312000F081E02D642F09951DC02A303105C1F4CE
:10313000772394F46DE20E94FA178C0144275527F7
:10314000BA014C195D096E097F092AE0CE010E947F
:103150002018800F911F06C02AE00E94201802C08C
:103160000E942018DF91CF911F910F91FF90EF9057
:10317000DF90CF9008959A01AB01770F660B770B24
:103180000E947F1808951F920F920FB60F9211247C
:103190002F933F934F935F938F939F93EF93FF935F
:1031A0008091030381114BC080910503882341F175
:1031B000209170003091710080916C0090916D00B1
:1031C00040916E0050916F005093710040937000D9
:1031D00040916A0050916B0050936D0040936C00D9
:1031E00030936F0020936E0090936B0080936A0081
:1031F0001092050388B3807F88BB82B3837F82BB34
:1032000080910303E0916C00F0916D00E80FF11DD7
:10321000808198B3282F2F70922B98BB92B38695FC
:1032200086958C70892B82BB80910303E09170009E
:10323000F0917100E80FF11D808183BD1EC0E09107
:103240006C00F0916D00E80FF11D808128B3982F7C
:103250009F709095922398BB92B3869586958C70BB
:103260008095892382BB80910303E0917000F091E7
:103270007100E80FF11D808183BD809103038F5F92
:1032800080930303E0917000F0917100E80FF11D4D
:103290009081992311F0873011F410920303FF916C
:1032A000EF919F918F915F914F913F912F910F904F
:1032B0000FBE0F901F901895863028F4E82FF0E08D
:1032C000E85DFC4F60830895CF92DF92EF92FF920A
:1032D0000F931F93CF93DF930F2EF5E0EF2EF12C7A
:1032E000F02DC12CD12C70E02CC08C2D9D2D272FC2
:1032F000FC01EE5DFC4F30818C010F5F1F4FF80128
:10330000EE5DFC4F4081A32FB0E0A85DBC4FE42FE1
:10331000F0E0E85DFC4F6C915081561740F4FC01E1
:10332000EE5DFC4F4083F801EE5DFC4F30832F5F74
:10333000822F90E08C179D07DCF281E0E81AF108FB
:1033400029F0E7011E141F0484F2F7CFDF91CF911B
:103350001F910F91FF90EF90DF90CF900895809193
:1033600005038111FCCF81E0809305030895CF927E
:10337000DF92EF92FF920F931F93CF93DF93E09131
:103380006A00F0916B001082A2E2B3E048E253E0E1
:1033900030E020E061E070E00AE010E09D91E92F6C
:1033A000F0E0E85DFC4F80818B30A8F1C0916A00AD
:1033B000D0916B00FB0102C0EE0FFF1F9A95E2F760
:1033C00098819E2B988390E0821B9109853091050E
:1033D00054F4C0916A00D0916B00C30FD11D888155
:1033E000E82BE88318C08A3091050CF4802FC32E97
:1033F000D12CE0906A00F0906B00EC0CFD1CE70112
:10340000E983E0916E00F0916F00E601CE0FDF1FBF
:103410008883280F3F5FA417B50709F0BFCF832F1C
:1034200090E0E0916E00F0916F00E80FF91F209599
:103430002083363040F420916E0030916F00F90106
:10344000E80FF91F1182DF91CF911F910F91FF902B
:10345000EF90DF90CF900895CF9380910403811176
:1034600041C0F894E2E2F3E01082C1E0C18382E05F
:10347000828383E0838384E0848385E085830E9464
:10348000B719209170003091710080916C0090917B
:103490006D0040916E0050916F0050937100409309
:1034A000700040916A0050916B0050936D00409302
:1034B0006C0030936F0020936E0090936B008093AC
:1034C0006A0087B38F6087BB81B38C6081BB85B591
:1034D0008B6085BD89B7806889BF8FEF83BD789485
:1034E000C0930403CF910895809105038111FCCF0F
:1034F0000E9464190E94B7190E94AF190895862F7F
:103500000E94F02081E090E00895EEE2F3E0138263
:1035100012828FEC91E091838083148208951F9230
:103520000F920FB60F9211242F933F938F939F9377
:10353000EF93FF93809133038823E1F0809134036C
:1035400090E081509F4F9BBD8ABD30913503E09143
:103550003603F0913703208181E090E002C0880FAC
:10356000991F3A95E2F78095909530E08223932356
:10357000808318C0209134038DEE92E1821B910963
:103580009BBD8ABD30913503E0913603F09137033E
:10359000208181E090E002C0880F991F3A95E2F700
:1035A000822B80839091330381E0892780933303BA
:1035B000FF91EF919F918F913F912F910F900FBEAF
:1035C0000F901F901895FC011082148213821682AE
:1035D0001582178212821182089568E370E083EFEA
:1035E00093E00E94512283EF93E00E94672291E0D2
:1035F000811190E0892F0895CF92DF92EF92FF9290
:10360000CF93DF93FC012081222309F44CC0EC010D
:103610006181728183EF93E00E94512260E083EF29
:1036200093E00E946B2283EF93E00E946722811156
:1036300039C069817A8141E050E083EF93E00E94D4
:1036400002230E94131D6B017C011BC00E94131DED
:10365000DC01CB018C199D09AE09BF09893E93405D
:10366000A105B10570F08DE793E00E94012183E68A
:1036700093E00E9401218AE793E00E94012120E06B
:1036800012C083EF93E00E94312318161906F4F656
:1036900083EF93E00E94392321E08F3F91051CF0D6
:1036A00020E001C020E0822FDF91CF91FF90EF90CA
:1036B000DF90CF900895CF92DF92EF92FF92CF9359
:1036C000DF93FC012081222309F475C0278121307A
:1036D00009F074C0EC016181728183EF93E00E9474
:1036E000512262E083EF93E00E946B2283EF93E02C
:1036F0000E946722882379F08DE793E00E940121E0
:1037000089E593E00E9401218AE793E00E9401216C
:1037100080E090E055C069817A8142E050E083EF1B
:1037200093E00E9402230E94131D6B017C011CC0C8
:103730000E94131DDC01CB018C199D09AE09BF0944
:10374000893E9340A105B10578F08DE793E00E9492
:1037500001218DE493E00E9401218AE793E00E9419
:10376000012180E090E02CC083EF93E00E943123A0
:103770000297F4F283EF93E00E9439239C838B83BA
:1037800083EF93E00E94392320E030E03B81820FF9
:10379000931F9C838B83009729F48D819E819C834A
:1037A0008B8304C0029710F41C821B8283E08F83FA
:1037B0008B819C8105C080E090E002C080E090E0B9
:1037C000DF91CF91FF90EF90DF90CF900895CF934E
:1037D000DF93D62FC42FFC016181728183EF93E0C8
:1037E0000E9451226D2F83EF93E00E946B226C2F79
:1037F00083EF93E00E946B2283EF93E00E946722A5
:10380000882361F08DE793E00E94012183E493E037
:103810000E9401218AE793E00E940121DF91CF916C
:1038200008951F93CF93DF93FC011081112379F04A
:103830008781882311F0833049F4EF0141E560E08E
:10384000CF010E94E71B81E08F8301C010E0812F30
:10385000DF91CF911F910895CF93DF93EC010E94E8
:10386000111C882319F08B819C810BC0CE010E9412
:10387000FC1A811103C08B819C8103C0CE010E9480
:103880005B1BDF91CF910895462F603208F04FE126
:1038900061E00E94E71B0895FC019B01ADECBCECCC
:1038A0000E94DD2C96958795969587959695879598
:1038B00096838583A3E8BEEB0E94DD2C96958795C1
:1038C000929582958F7089279F708927AC0141500E
:1038D00051094F3F510519F010F04FEF50E062E0F1
:1038E000CF010E94E71B0895CF93DF93EC0170E0B6
:1038F00060597F4F7A8369831C821B821E821D82DE
:103900001F8260E00E94441C64E670E080E090E06A
:103910000E941C1D6FE37AE0CE010E944C1C64E6FD
:1039200070E080E090E00E941C1DCE010E94ED1A24
:1039300081110DC08DE793E00E9401218FE693E095
:103940000E9401218AE793E00E94012108C062E3FE
:1039500070E080E090E00E941C1D81E08883DF9190
:10396000CF9108951F920F920FB60F9211242F93AB
:103970003F934F935F936F937F938F939F93AF93F7
:10398000BF93EF93FF9380913A0390913B03A091F3
:103990003C03B0913D030196A11DB11D80933A03F4
:1039A00090933B03A0933C03B0933D038091390374
:1039B0008A3079F480913803811109C081E08093C5
:1039C000380378940E941315F894109238031092DB
:1039D0003903809139038F5F809339030E94D81493
:1039E000FF91EF91BF91AF919F918F917F916F91D7
:1039F0005F914F913F912F910F900FBE0F901F90AD
:103A0000189583B78B6083BF89B7826089BF8AEFBF
:103A10008CBF10923A0310923B0310923C03109219
:103A20003D037894089560913A0370913B0380912F
:103A30003C0390913D0308950F931F938B019C01CC
:103A400040913A0350913B0360913C0370913D03D8
:103A500080913A0390913B03A0913C03B0913D03C8
:103A6000841B950BA60BB70B80179107A207B30712
:103A700078F31F910F910895019739F0880F991FDE
:103A8000880F991F02970197F1F708951092AB03E1
:103A900081E08093A9031092A803A89AA99A089894
:103AA000099888E480B985E486BF089586B78A7B43
:103AB00086BFA898A99808950F931F93522F41325B
:103AC00008F066C001E010E0980106C0015011093D
:103AD0002109310909F45EC09091AB039111F6CF31
:103AE00031E03093AB035093A9032FEF20933E03B3
:103AF00010928303240F209382033093AA03209112
:103B0000AA03880F822B8093AA038091A803813097
:103B1000C1F41092A8038091AA0383B900E010E0D9
:103B200021E030E008C08091AA0383B90150110957
:103B30002109310981F106B603FCF5CF85EC86BF7A
:103B400002C085EE86BF01E010E0980105C001507B
:103B5000110921093109F9F08091AB038130B9F3E2
:103B600080918303841710F440918303442399F0D8
:103B7000A4E8B3E0FB018FEF840F90E00196680F9B
:103B8000791F8D918193E617F707D9F7942F03C01A
:103B900090E001C090E0892F1F910F910895CF927E
:103BA000DF92EF92FF920F93413208F06BC0CC246A
:103BB000C394D12C760107C091E0C91AD108E1085D
:103BC000F10809F461C03091AB033111F5CF92E0F7
:103BD0009093AB030093A9039FEF90933E03109241
:103BE000830340938203442371F0FB01A4E8B3E014
:103BF000415050E04F5F5F4F640F751F91919D934F
:103C0000E617F707D9F71092AA039091AA03880F35
:103C1000892B8093AA038091A8038130B9F4109274
:103C2000A8038091AA0383B980E090E0A1E0B0E00E
:103C300007C04091AA0343B90197A109B10981F1D5
:103C400006B603FCF6CF85EC86BF02C085EE86BFC4
:103C500041E050E0BA0105C04150510961097109C4
:103C6000A9F02223C9F08091AB038230A9F4F4CFEC
:103C700080913E03803261F080913E03803351F0A9
:103C800034E00EC031E00CC034E00AC034E008C0BB
:103C900032E006C033E004C080913E038F3F41F71D
:103CA000832F0F91FF90EF90DF90CF900895409178
:103CB0006003262F30E0240F311D21323105ECF452
:103CC0002091AB032430D9F4662381F0A82FB92FBB
:103CD00080E090E0309160032D91FC01EE59FC4FA3
:103CE000E30FF11D208301968617A0F380916003F6
:103CF000680F6093600380E0089581E0089582E09A
:103D0000089585ED86BF81E090E0DC0104C0019755
:103D1000A109B10929F006B604FCF9CF1092AB0352
:103D2000089585EC86BF1092AB030895CF930E944F
:103D3000561D84B38C7F84BB85B3836085BB989B01
:103D40003CC0999B3CC0A898A09A80E001C08F5FBE
:103D5000989B47C08A3FD9F7C1E050C08B3088F5A7
:103D6000A19AA99890E001C09F5F83B3C82FC27049
:103D700081FF3BC09A3FC1F7C1E040C09B3018F5BE
:103D8000A198A99A80E001C08F5F999931C08A3FBC
:103D9000D9F7C1E033C08B30C0F4A098A89A80E076
:103DA00001C08F5F989927C08A3FD9F7C1E026C02C
:103DB0008B3068F40E94461D21C0C1E01FC0C1E0E5
:103DC0001DC0C4E01BC0C2E019C0C3E017C0C5E0FD
:103DD00015C0C1E013C0C1E011C0C1E00FC0C1E017
:103DE0000DC08A3F09F0BACFF4CF9A3F39F6F3CF2E
:103DF0008A3F89F6F2CF8A3FD9F6F1CF8C2FCF9147
:103E00000895CF930E94561DF894A198A99A84E62C
:103E100090E00E943C1DC4E6A098A89A84E690E039
:103E20000E943C1DA898A09A84E690E00E943C1D48
:103E3000999B21C0A998A19A84E690E00E943C1D1C
:103E4000A098A89A84E690E00E943C1DA198A99AA7
:103E500084E690E00E943C1DA898A09A84E690E039
:103E60000E943C1D999B07C0A098A89A84E690E008
:103E70000E943C1D02C0C15079F688EE93E00E947A
:103E80003C1D0E94461D7894CF9108951F920F9279
:103E90000FB60F9211242F933F934F935F936F931D
:103EA0007F938F939F93AF93BF93EF93FF9381B1D2
:103EB000E82FE87F8E2F90E0893C910508F0E2C062
:103EC000FC01E65DFF4F0C94D72C8091AA0383B9C7
:103ED00085EC86BFD7C090918303809182039817A9
:103EE00070F4E091830381E08E0F80938303F0E010
:103EF000EC57FC4F808183B985EC86BFC3C08091AD
:103F0000A903882319F00E94811EBCC081E0809320
:103F1000A80384EA86BF1092AB03B4C080E280930A
:103F20003E030E94811EAEC080E380933E030E9448
:103F3000811EA8C088E380933E030E94911EA2C008
:103F4000E091830381E08E0F8093830383B1F0E0DF
:103F5000EC57FC4F808390918303809182039817E4
:103F600018F485EC86BF8EC085E886BF8BC0E091D3
:103F7000830381E08E0F8093830383B1F0E0EC57DD
:103F8000FC4F80838091A903882319F00E94811E31
:103F900079C081E08093A80384EA86BF1092AB03C6
:103FA00071C00E94811E6EC083E08093AB031092AB
:103FB0003F0385EC86BF66C080913F03803270F47A
:103FC000E0913F0381E08E0F80933F0383B1F0E0E7
:103FD000E05CFC4F808385EC86BF54C085E886BFDB
:103FE00051C00E94911E80913F03803230F4E091D5
:103FF0003F03F0E0E05CFC4F108260913F0370E013
:10400000E091A403F091A50380E493E00995109258
:104010003F0338C085E886BF35C084E08093AB039A
:104020001092610310926003E091A603F091A70340
:10403000099580916003811105C081E08093600340
:1040400010926203E091610381E08E0F809361031F
:10405000F0E0EE59FC4F808183B99091610380912B
:104060006003981718F485EC86BF0CC085E886BFFE
:1040700009C085EC86BF1092AB0304C010923E03CA
:104080000E94811EFF91EF91BF91AF919F918F91FF
:104090007F916F915F914F913F912F910F900FBE44
:1040A0000F901F901895803369F48091AC03909124
:1040B000AD03892BA9F481E090E09093AD03809348
:1040C000AC030895803261F48091AC039091AD030C
:1040D000019731F4F8941AB8E0E0FFE309950895E8
:1040E0001092AD031092AC0308951F920F920FB679
:1040F0000F9211242F933F934F935F936F937F936E
:104100008F939F93AF93BF93CF93DF93EF93FF93DF
:10411000CBB1DCB18D2F0E9453209C2F9871E09180
:10412000B003EF5FEF718091AF03E81739F0E093D0
:10413000B003F0E0ED54FC4FD08301C092E08091D9
:10414000AE03982B9093AE03FF91EF91DF91CF9147
:10415000BF91AF919F918F917F916F915F914F919F
:104160003F912F910F900FBE0F901F9018951F92A7
:104170000F920FB60F9211248F939F93EF93FF939B
:104180009091B2038091B103981761F0E091B1036F
:10419000EF5FEF71E093B103F0E0ED52FC4F8081EF
:1041A0008CB901C05598FF91EF919F918F910F901D
:1041B0000FBE0F901F9018951092B2031092B1038A
:1041C0001092B0031092AF0399231CF422E02BB994
:1041D0009F7790BD89B988E98AB986E880BD08953E
:1041E0002091B2032F5F2F719091B1032917E1F352
:1041F000E22FF0E0ED52FC4F80832093B203559AFA
:104200000895CF93DF93EC012196FC0184918823DC
:1042100039F00E94F020FE01849121968111F9CF9E
:10422000DF91CF910895FC01108208950F931F93A1
:10423000CF93DF9300D0CDB7DEB78C0119821A82FD
:1042400064E370E083EF93E00E94512242E050E08B
:10425000BE016F5F7F4F83EF93E00E94062383EFE1
:1042600093E00E946722882389F088E993E00E9406
:10427000012185E893E00E9401218EE893E00E94ED
:10428000012185E993E00E94012103C081E0F8014A
:1042900080830F900F90DF91CF911F910F91089520
:1042A0000F931F93CF93DF931F92CDB7DEB7FC011F
:1042B0008081882309F444C064E370E083EF93E0D5
:1042C0000E945122198241E050E0BE016F5F7F4F92
:1042D00083EF93E00E94062383EF93E00E9467221E
:1042E000882399F088E993E00E94012185E893E012
:1042F0000E9401218EE893E00E94012185E993E06C
:104300000E94012180E090E01DC042E064E383EF61
:1043100093E00E94FE2283EF93E00E9439238C01F8
:1043200083EF93E00E94392320E030E0382F020F22
:10433000131F83EF93E00E946722802F912F02C00A
:1043400080E090E00F90DF91CF911F910F91089541
:104350001F93CF93DF931F92CDB7DEB7FC0180810F
:104360008823E1F1162F64E370E083EF93E00E946D
:10437000512262E0610F698341E050E0BE016F5F4E
:104380007F4F83EF93E00E94062383EF93E00E9428
:104390006722882391F088E993E00E94012185E853
:1043A00093E00E9401218EE893E00E94012185E9BB
:1043B00093E00E94012180E012C041E064E383EFBA
:1043C00093E00E94FE2283EF93E00E943923182F8E
:1043D00083EF93E00E946722812F01C080E00F905D
:1043E000DF91CF911F910895CF93DF9300D0CDB788
:1043F000DEB7FC0180818823B1F081E089836A8384
:1044000064E370E083EF93E00E94512242E050E0C9
:10441000BE016F5F7F4F83EF93E00E94062383EF1F
:1044200093E00E9467220F900F90DF91CF91089543
:10443000CF93DF9300D0CDB7DEB7FC018081882316
:10444000B1F082E089836A8364E370E083EF93E0F4
:104450000E94512242E050E0BE016F5F7F4F83EF28
:1044600093E00E94062383EF93E00E9467220F905F
:104470000F90DF91CF9108951092190410921804B3
:104480001092F6031092F5030E94461D089581E0F4
:104490008093F403609317041092F6031092F503CF
:1044A00008950E94472208950F93062F21E040911E
:1044B000F50367EF73E0809117040E94CF1D1092FF
:1044C000F6031092F5031092F4030F91089561E042
:1044D0000E9454220895CF93DF931F92CDB7DEB789
:1044E00069838091F403882399F08091F5038032E9
:1044F000B8F48091F603E82FF0E0E950FC4F6083B8
:104500008F5F8093F6038093F50381E090E00AC00B
:1045100061E0CE0101960E94571E81E090E002C04A
:1045200080E090E00F90DF91CF9108954F925F92DD
:104530006F927F92AF92BF92CF92EF92FF920F93C2
:104540001F93CF93DF935C01F62ED42F28013901FE
:10455000EE2031F10E9447228E2D843008F083E056
:10456000CFEFC80F8823B1F08C2F880F880F880FEA
:10457000A301920104C056954795379527958A95D2
:10458000D2F7CA01B901C5010E946B229C2FC1500C
:104590009111EACF60E0C5010E94542281110FC041
:1045A0004D2FD13208F040E22C2D6AE174E08F2DBE
:1045B0000E945C1D109219048093180401C080E0D1
:1045C000DF91CF911F910F91FF90EF90CF90BF900F
:1045D000AF907F906F905F904F900895CF92EF9241
:1045E0000F931F93C22EE12C00E010E098010E946F
:1045F00096221F910F91EF90CF90089521E00E9495
:10460000EE22089521E00E94EE220895CF92DF92DB
:10461000EF92FF920F931F93CF93DF937C018B0157
:104620006A018091F403882371F04115510579F0F6
:10463000EB01040F151F6991C7010E946B22C0177F
:10464000D107C9F704C0642FC8010E94571EC601D4
:10465000DF91CF911F910F91FF90EF90DF90CF905E
:1046600008958091180490E020911904821B91090B
:1046700008959091190480911804981750F4E92F27
:10468000F0E0E65EFB4F208130E09F5F90931904DD
:1046900002C02FEF3FEFC90108958091F403089500
:1046A0000E94961E08950E94011F08950E947C108A
:1046B0000E94BC1081E594E00E94162164EB81E524
:1046C00094E00E94F4216AE081E594E00E941822BF
:1046D00062E286E494E00E943A1783E494E00E9448
:1046E0008C0E83E494E00E940E0F83EF93E00E940F
:1046F0003C2260E089E494E00E94741C40E063E0A6
:1047000082E594E00E947C126AEF70E080E090E025
:104710000E941C1D67E082E594E00E94D1112FEFFA
:1047200030E0281B31093093D8042093D70441E0AE
:1047300063E082E594E00E947C1208950E94562373
:1047400067ED71E08EE293E00E940E1882E594E03E
:104750000E94FF120E94220E8091E904882381F3B7
:104760000E94BC1011E0CFE7D4E06EED71E08EE264
:1047700093E00E940E180E949429809195049091D4
:1047800096040197C19760F48091A5049091A604C6
:1047900085569109CB9720F41093890410928804D0
:1047A0008885882311F389858823F9F240E050E059
:1047B00060E070E080E090E00E941024D6CFCF93BC
:1047C000DF9382E594E00E940C1481E594E00E945E
:1047D000132189E494E00E94E31A86E494E00E94A5
:1047E000341783E494E00E94870ECAE3D4E01B826E
:1047F0001E821D828EE190E098878F8388E691E08B
:104800000E94EC2C9983888384E58A83DF91CF9181
:10481000089580913A0490913B040E94812D08955F
:104820004F925F926F927F928F929F92AF92BF92C0
:10483000CF92DF92EF92FF920F931F93CF93DF936C
:104840008B01EA01BC01990F880B990B0E94042B84
:104850002BED3FE049E450E40E94B72B20E030E02C
:1048600044E353E40E945A2A2B013C016627772730
:10487000601B710B072E000C880B990B0E94042BF8
:104880004B015C0124EE3BEC46E150E4C301B20174
:104890000E94ED290E94242C9B01AC01C501B401AA
:1048A0000E94B72B23E333E343E35FE30E945A2ADA
:1048B0000E94CC2A6B017C012BED3FE049E45FE3D1
:1048C000C301B2010E94ED290E94242C9B01AC017E
:1048D000C501B4010E94B72B23E333E343E35FE355
:1048E0000E945A2A0E94CC2AE8E6F4E09E012C1984
:1048F0003D09318320839E01260F371F3383228396
:10490000CE01861B970B95838483CC0EDD1ED78248
:10491000C682EF010F2EF0E7EF2EF4E0FF2EF02D10
:10492000C12CD12C21913191C901992324F48827DC
:104930009927821B930BC816D9060CF46C01EE154F
:10494000FF0581F7B801110F880B990B0E94042B0A
:104950004B015C01B601DD0C880B990B0E94042B06
:104960009B01AC01C501B4010E945A2A4B015C01B4
:1049700068817981072E000C880B990B0E94042B0B
:10498000A50194010E94B72B0E94CC2A69937993C8
:10499000CE15DF0569F7C8E6D4E06881798182E544
:1049A00094E00E9404176A817B8186E594E00E946E
:1049B00004176C817D818AE594E00E9404176E8162
:1049C0007F818EE594E00E940417CE01DF91CF91A4
:1049D0001F910F91FF90EF90DF90CF90BF90AF901D
:1049E0009F908F907F906F905F904F9008954F921F
:1049F0005F926F927F92AF92BF92CF92DF92EF92CF
:104A0000FF920F931F93CF93DF938C01EB0183E30E
:104A100093E3A3E3BFE38093760090937700A093A2
:104A20007800B093790080918E04882309F466C0E1
:104A30008AE999E9A9E9BEE380937600909377002B
:104A4000A0937800B0937900CB0168EE73E00E94E8
:104A5000A12C6F5F7F4F072E000C880B990B0E94D3
:104A6000042B6B017C01A090A504B090A604B501B5
:104A700060587109072E000C880B990B0E94042BBB
:104A80002AE939E949E95EE30E94B72B2B013C0191
:104A90008091A3049091A404B501681B790B072EA3
:104AA000000C880B990B0E94042B9B01AC01C301E5
:104AB000B2010E94EE290E94CC2A072E000C880B1E
:104AC000990B0E94042B2B013C0160919104709181
:104AD0009204072E000C880B990B0E94042B23E3F1
:104AE00033E343E35FE30E94B72B9B01AC01C301B7
:104AF000B2010E94EE290E94CC2A39C0CB0168EE97
:104B000073E00E94A12C6F5F7F4F072E000C880B73
:104B1000990B0E94042B6B017C01A090A504B0901E
:104B2000A604B50160587109072E000C880B990B7B
:104B30000E94042B23E333E343E35FE30E94B72B9C
:104B40002B013C018091A3049091A404B501681B42
:104B5000790B072E000C880B990B0E94042B9B01EC
:104B6000AC01C301B2010E94EE290E94CC2A442765
:104B70005527461B570BBA01550F880B990B0E94FE
:104B8000042BA70196010E94B72B0E94CC2ACB01CF
:104B900063E070E00E94A12CAB01BE01C8010E943D
:104BA000102480E090E0DF91CF911F910F91FF9052
:104BB000EF90DF90CF90BF90AF907F906F905F901D
:104BC0004F90089541E061E082E594E00E949911E0
:104BD0006091720070917300072E000C880B990B86
:104BE0000E941C1D40E061E082E594E00E94991162
:104BF0000895482F60E082E594E00E94991108959D
:104C000081E594E00E945021E7EAF4E020E030E002
:104C1000AC01022E02C0559547950A94E2F7417007
:104C200041932F5F3F4F2031310591F72091E804E8
:104C30002093E704892B21F081E08093E804089514
:104C40001092E80408950F931F930E94131D009182
:104C5000D9041091DA042091DB043091DC04DC01EA
:104C6000CB01801B910BA20BB30BC397A105B10520
:104C7000D8F08091A5049091A6049093A404809309
:104C8000A30483E494E00E94910E90E09093A60424
:104C90008093A5040E94131D6093D9047093DA04D5
:104CA0008093DB049093DC041F910F9108950F9380
:104CB0001F930E94131D0091DD041091DE042091CA
:104CC000DF043091E004DC01CB01801B910BA20BCF
:104CD000B30B8B3F9105A105B10590F089E494E0F9
:104CE0000E942C1C9093A2048093A1040E94131D87
:104CF0006093DD047093DE048093DF049093E004FE
:104D00001F910F910895EF92FF920F931F93CF93EE
:104D1000DF93CFE7D4E0A6E7B4E008E814E0FE01B3
:104D200081918D93E017F107D9F786E494E00E9412
:104D30005B170F2EFFE7EF2EF4E0FF2EF02D982FDC
:104D40009170F701908381FB992790F9918382FB01
:104D5000992790F9928383FB992790F9938384FB99
:104D6000992790F9948385FB992790F9958386FB81
:104D7000882780F9868360E082E594E00E94DF1155
:104D8000F701878361E082E594E00E94DF11F7017B
:104D9000808791E08881882311F0188201C0988370
:104DA0002196C017D107B1F7DF91CF911F910F91D5
:104DB000FF90EF900895CF93DF9360E082E594E059
:104DC0000E94AA11CFE7D4E0888761E082E594E0F1
:104DD0000E94AA119885992319F01092870403C0A4
:104DE00091E090938704882319F01092880403C0FF
:104DF00081E080938804DF91CF910895AF92BF92B4
:104E0000CF92DF92EF92FF920F931F93CF93DF9396
:104E10005C010F2EF9EEEF2EF3E0FF2EF02DCC24E7
:104E2000CA94DC2CF501628170E042E050E083EF2F
:104E300093E00E94022383EF93E00E943923C82F5E
:104E400083EF93E00E943923182F00E0C8018C2BD8
:104E5000EC01209741F4CD2889F58AE090E00E948A
:104E60003C1D80E03EC0C5359AEAD90749F4E5E526
:104E7000CE16EAEADE0611F5F501148281E031C0B2
:104E8000C635FAEADF0749F485E5C8168AEAD80686
:104E9000A9F481E0F501848324C0CA3AF5E5DF076F
:104EA00069F4F501628170E041E050E083EF93E046
:104EB0000E94022383EF93E00E943923F1E0EF1A6E
:104EC000F1086E0109F0AECF85EB93E00E9401215D
:104ED00080EA93E00E94012182EB93E00E9401218D
:104EE00080E0DF91CF911F910F91FF90EF90DF90C5
:104EF000CF90BF90AF9008952F923F924F925F92C4
:104F00006F927F928F929F92AF92BF92CF92DF92D9
:104F1000EF92FF920F931F93CF93DF9300D000D0B7
:104F200000D0CDB7DEB74C017C836B83FC0183815D
:104F3000811106C0C4010E94FE26811103C0DFC09A
:104F4000F4011382F40116821582312CC9C0F401D8
:104F5000628170E042E050E083EF93E00E94022320
:104F600083EF93E00E943923182F83EF93E00E9490
:104F70003923782E612C5301A12AF5E5AF16FAEA00
:104F8000BF0639F481E0F401838314828581968120
:104F9000BBC0F6E5AF16FAEABF0639F481E0F401CA
:104FA0008383848385819681AFC0A114B10421F4E9
:104FB000F40185819681A8C0F4016781708585819F
:104FC000968168177907A0F4625E7F4F70876783C8
:104FD000CB01880F991F680F791F660F771F660F27
:104FE000771F808191810E94192EF4019183808323
:104FF000F401858196818C01000F111F800F911F94
:10500000880F991F880F991F008111819801280F1F
:10501000391F3A83298369011D821E82132DF401F1
:105020008481811107C0153028F0E981FA81138647
:10503000128623C0F401628170E042E050E083EF09
:1050400093E00E94022383EF93E00E943923282EED
:1050500083EF93E00E943923F82EE12CC7018229C7
:105060002D813E81280F391F3E832D83F6018193C8
:1050700091936F011F5F163091F62D813E812A15A5
:105080003B0531F4F40185819681019696838583F1
:10509000F401628170E042E050E083EF93E00E940F
:1050A000022383EF93E00E943923182F83EF93E0CC
:1050B0000E943923582E412CC201812B8535FAEAF2
:1050C0009F0719F4F40114820BC086359A4A21F423
:1050D00021E0F401248304C0F4018581968114C089
:1050E000F401858196812B813C818217930750F4CE
:1050F0008238910508F42BCF80E090E005C080E075
:1051000090E002C080E090E026960FB6F894DEBFF3
:105110000FBECDBFDF91CF911F910F91FF90EF9008
:10512000DF90CF90BF90AF909F908F907F906F90C7
:105130005F904F903F902F900895EF92FF920F93C2
:105140001F93CF93DF930E94131D00919B04109136
:105150009C0420919D0430919E04DC01CB01801BB6
:10516000910BA20BB30B4C97A105B10508F4A5C098
:105170008091990490919A04909398048093970455
:105180008091950490919604909394048093930455
:105190000E94131D60939B0470939C0480939D0454
:1051A00090939E0468EE73E08AE394E00E947C276B
:1051B0009093A00480939F04109288041092890415
:1051C00010928E04181619060CF05DC0E0913A0496
:1051D000F0913B049C01220F331F280F391F220F2F
:1051E000331F220F331F2E0F3F1FC0E0D0E080E09F
:1051F00090E011E060EF70E0DF01408151814130CB
:105200005105E9F41093880440918A0450918B046D
:105210004F5F5F4F50938B0440938A04E480F58086
:1052200042815381405A510950939A044093990402
:10523000AB014E195F0950939604409395044D912C
:105240005C91119742305105C1F410938E04409146
:105250008C0450918D044F5F5F4F50938D044093A9
:105260008C0412964D915C911397840F951F1496A0
:105270004D915C911597C40FD51F3C96E217F3072B
:1052800009F0BACF04C0C0E0D0E080E090E0209107
:105290008C0430918D04B9010E94A12CCB01805A5D
:1052A00091099093920480939104CE01B9010E94D8
:1052B000A12C7093900460938F04DF91CF911F9184
:1052C0000F91FF90EF9008950F931F93CF930E943B
:1052D000002607EB14E0C0E06C2F81E594E00E940B
:1052E000A82190E0F801819391938F01CF5FC031A5
:1052F00099F70E9423260E9483260E9457260E9427
:105300009D2867E082E594E00E94D1112091D704A6
:105310003091D804280F311D309375042093740404
:10532000CF911F910F9108950F931F930E94002614
:105330008091E804811142C00E94131D0091700405
:10534000109171042091720430917304DC01CB013F
:10535000801B910BA20BB30BC397A105B10570F194
:105360000E94131D60937004709371048093720403
:10537000909373040E9423260E94DB260E945726E6
:105380000E949D2867E082E594E00E94D11120915F
:10539000D7043091D804280F311D30937504209321
:1053A000740440E061E082E594E00E947C1140E0FA
:1053B00060E082E594E00E947C110CC041E061E075
:1053C00082E594E00E947C1141E060E082E594E097
:1053D0000E947C111F910F9108955058BB27AA2756
:1053E0000E94052A0C947D2B0E946F2B38F00E949E
:1053F000762B20F039F49F3F19F426F40C94452BBA
:105400000EF4E095E7FB0C943F2BE92F0E948E2BC6
:1054100058F3BA17620773078407950720F079F4E9
:10542000A6F50C94B02B0EF4E0950B2EBA2FA02D00
:105430000B01B90190010C01CA01A0011124FF2741
:10544000591B99F0593F50F4503E68F11A16F0403C
:10545000A22F232F342F4427585FF3CF469537953B
:105460002795A795F0405395C9F77EF41F16BA0B00
:10547000620B730B840BBAF09150A1F0FF0FBB1FAE
:10548000661F771F881FC2F70EC0BA0F621F731FF7
:10549000841F48F4879577956795B795F7959E3F54
:1054A00008F0B0CF9395880F08F09927EE0F9795E5
:1054B000879508950E946E2A0C947D2B0E94762B6E
:1054C00058F00E946F2B40F029F45F3F29F00C94B4
:1054D0003F2B51110C94B12B0C94452B0E948E2B19
:1054E00068F39923B1F3552391F3951B550BBB2713
:1054F000AA2762177307840738F09F5F5F4F220F58
:10550000331F441FAA1FA9F335D00E2E3AF0E0E84E
:1055100032D091505040E695001CCAF72BD0FE2F98
:1055200029D0660F771F881FBB1F2617370748072C
:10553000AB07B0E809F0BB0B802DBF01FF279358E4
:105540005F4F3AF09E3F510578F00C943F2B0C943E
:10555000B12B5F3FE4F3983ED4F38695779567953A
:10556000B795F7959F5FC9F7880F911D9695879519
:1055700097F90895E1E0660F771F881FBB1F621738
:1055800073078407BA0720F0621B730B840BBA0BF6
:10559000EE1F88F7E09508950E94D32A6894B11110
:1055A0000C94B12B08950E94962B88F09F5798F089
:1055B000B92F9927B751B0F0E1F0660F771F881F18
:1055C000991F1AF0BA95C9F714C0B13091F00E9432
:1055D000B02BB1E008950C94B02B672F782F88275B
:1055E000B85F39F0B93FCCF3869577956795B39559
:1055F000D9F73EF490958095709561957F4F8F4FC8
:105600009F4F0895E89409C097FB3EF490958095CC
:10561000709561957F4F8F4F9F4F9923A9F0F92F78
:1056200096E9BB279395F695879577956795B795F6
:10563000F111F8CFFAF4BB0F11F460FF1BC06F5FDC
:105640007F4F8F4F9F4F16C0882311F096E911C0EE
:10565000772321F09EE8872F762F05C0662371F00F
:1056600096E8862F70E060E02AF09A95660F771F23
:10567000881FDAF7880F9695879597F9089597F917
:105680009F6780E870E060E008959FEF80EC0895E8
:10569000DF93CF931F930F93FF92EF92DF927B01E3
:1056A0008C01689406C0DA2EEF010E94CA2BFE011D
:1056B000E894A5912591359145915591A6F3EF0177
:1056C0000E94052AFE019701A801DA9469F7DF908C
:1056D000EF90FF900F911F91CF91DF9108950024DB
:1056E0000A941616170618060906089500240A9447
:1056F00012161306140605060895092E0394000CCD
:1057000011F4882352F0BB0F40F4BF2B11F460FF5B
:1057100004C06F5F7F4F8F4F9F4F089557FD905884
:10572000440F551F59F05F3F71F04795880F97FB65
:10573000991F61F09F3F79F087950895121613061F
:105740001406551FF2CF4695F1DF08C0161617064E
:105750001806991FF1CF8695710561050894089583
:10576000E894BB2766277727CB0197F908950E9415
:10577000CA2B0C947D2B0E946F2B38F00E94762B45
:1057800020F0952311F00C943F2B0C94452B112401
:105790000C94B12B0E948E2B70F3959FC1F3950F43
:1057A00050E0551F629FF001729FBB27F00DB11DA5
:1057B000639FAA27F00DB11DAA1F649F6627B00D35
:1057C000A11D661F829F2227B00DA11D621F739F1E
:1057D000B00DA11D621F839FA00D611D221F749F2C
:1057E0003327A00D611D231F849F600D211D822F73
:1057F000762F6A2F11249F5750409AF0F1F088239A
:105800004AF0EE0FFF1FBB1F661F771F881F9150C6
:105810005040A9F79E3F510580F00C943F2B0C940B
:10582000B12B5F3FE4F3983ED4F386957795679567
:10583000B795F795E7959F5FC1F7FE2B880F911DF0
:105840009695879597F908959F930E943C2C0F9009
:1058500007FCEE5F0C94652C9F3F31F0915020F4D3
:10586000879577956795B795880F911D969587953C
:1058700097F908950C94452B0E94962BD8F3E89441
:10588000E0E0BB279F57F0F02AED3FE049EC06C06F
:10589000EE0FBB0F661F771F881F28F0B23A620712
:1058A0007307840728F0B25A620B730B840BE395DD
:1058B0009A9572F7803830F49A95BB0F661F771F60
:1058C000881FD2F790480C942E2CEF93E0FF07C06E
:1058D000A2EA2AED3FE049EC5FEB0E94052A0E9414
:1058E0007D2B0F90039401FC9058E6EEF1E00C94B0
:1058F000792C9F938F937F936F93FF93EF939B01EB
:10590000AC010E94B72BEF91FF910E94482B2F9181
:105910003F914F915F910C94B72BAA1BBB1B51E198
:1059200007C0AA1FBB1FA617B70710F0A61BB70B0F
:10593000881F991F5A95A9F780959095BC01CD01B4
:10594000089597FB072E16F4009407D077FD09D031
:105950000E948D2C07FC05D03EF4909581959F4FB9
:105960000895709561957F4F0895A1E21A2EAA1BA4
:10597000BB1BFD010DC0AA1FBB1FEE1FFF1FA217FF
:10598000B307E407F50720F0A21BB30BE40BF50BFC
:10599000661F771F881F991F1A9469F76095709585
:1059A000809590959B01AC01BD01CF010895EE0F4C
:1059B000FF1F0590F491E02D0994A29FB001B39FC1
:1059C000C001A39F700D811D1124911DB29F700D08
:1059D000811D1124911D0895CF93DF93823091058D
:1059E00010F482E090E0E091EC04F091ED0420E00E
:1059F00030E0C0E0D0E0309711F14081518148178C
:105A00005907C0F04817590761F4828193812097A4
:105A100019F09B838A832BC09093ED048093EC0450
:105A200026C02115310519F04217530718F49A01C1
:105A3000BE01DF01EF010280F381E02DDCCF2115F3
:105A4000310509F1281B390B2430310590F41296E9
:105A50008D919C9113976115710521F0FB01938342
:105A6000828304C09093ED048093EC04FD01329690
:105A700044C0FD01E20FF31F81939193225031093D
:105A80002D933C933AC02091EA043091EB04232BF0
:105A900041F420916200309163003093EB04209335
:105AA000EA0420916000309161002115310541F434
:105AB0002DB73EB74091640050916500241B350B13
:105AC000E091EA04F091EB04E217F307A0F42E1B37
:105AD0003F0B2817390778F0AC014E5F5F4F241752
