:100000000C94A7010C94CF010C94CF010C94CF0158
:100010000C9470170C94CF010C94CF010C943C19E4
:100020000C94CF010C94CF010C94681B0C94CF015D
:100030000C94CF010C94D01E0C94FC1E0C94CF0198
:100040000C94CF010C94CF010C94CF010C94C31DE0
:100050000C94CF01BB1EBF1EBF1EBF1EBF1EBF1E06
:10006000BF1EBF1EE21DBF1EBF1EBF1EBF1EBF1E86
:10007000BF1EBF1EE21DBF1EBF1EBF1EBF1EBF1E76
:10008000BF1EBF1EE81DBF1EBF1EBF1EBF1EBF1E60
:10009000BF1EBF1E0B1EBF1EBF1EBF1EBF1EBF1E2C
:1000A000BF1EBF1EE81DBF1EBF1EBF1EBF1EBF1E40
:1000B000BF1EBF1E111EBF1EBF1EBF1EBF1EBF1E06
:1000C000BF1EBF1E171EBF1EBF1EBF1EBF1EBF1EF0
:1000D000BF1EBF1E281EBF1EBF1EBF1EBF1EBF1ECF
:1000E000BF1EBF1E4E1EBF1EBF1EBF1EBF1EBF1E99
:1000F000BF1EBF1E1D1EBF1EBF1EBF1EBF1EBF1EBA
:10010000BF1EBF1E341EBF1EBF1EBF1EBF1EBF1E92
:10011000BF1EBF1E511EBF1EBF1EBF1EBF1EBF1E65
:10012000BF1EBF1E511EBF1EBF1EBF1EBF1EBF1E55
:10013000BF1EBF1E511EBF1EBF1EBF1EBF1EBF1E45
:10014000BF1EBF1E511EBF1EBF1EBF1EBF1EBF1E35
:10015000BF1EBF1E591EBF1EBF1EBF1EBF1EBF1E1D
:10016000BF1EBF1E871EBF1EBF1EBF1EBF1EBF1EDF
:10017000BF1EBF1E591EBF1EBF1EBF1EBF1EBF1EFD
:10018000BF1EBF1E871EBF1EBF1EBF1EBF1EBF1EBF
:10019000BF1EBF1E6E1EBF1EBF1EBF1EBF1EBF1EC8
:1001A000BF1EBF1E8A1EBF1EBF1EBF1EBF1EBF1E9C
:1001B000BF1EBF1E8A1EBF1EBF1EBF1EBF1EBF1E8C
:1001C000BF1EBF1E9F1EBF1EBF1EBF1EBF1EBF1E67
:1001D000BF1EBF1EB61EBF1EBF1EBF1EBF1EBF1E40
:1001E000BF1EBF1EB61E05A84CCDB2D44EB93836C0
:1001F000A9020C50B9918688083CA6AAAA2ABE007A
:100200000000803F434D505331313A200074696DF6
:10021000656F7574006E6F2061636B000D0A004599
:1002200052524F523A2000476F6C64626F617264A1
:100230003A2069326320706F7274657870616E6401
:100240006572206572726F7200476F6C64626F61D5
:1002500072643A2069326320706F727465787061DD
:100260006E646572206572726F720049324320734A
:10027000686F72740049324320636170000D0A0098
:100280004552524F523A2000506F72746578706137
:100290006E64657220636F6E6E656374696F6E2045
:1002A0006572726F7200506F7274657870616E64FF
:1002B000657220636F6E6E656374696F6E20657220
:1002C000726F72000D0A004552524F523A2000538D
:1002D0005246207772697465005352462074696DE6
:1002E000656F757400535246206572726F720053C9
:1002F00052462074696D656F7574005352463038EC
:1003000020696E6974000D0A004552524F523A201E
:1003100000757372696E673A006E6F2061636B00DF
:100320000D0A004552524F523A2000506978793AEE
:10033000206932632074696D656F7574000D0A0061
:100340004552524F523A20003219AC25D62511247D
:100350001FBECFE5D8E0DEBFCDBF11E0A0E6B0E024
:10036000E2EFFFE502C005900D92AA3FB107D9F771
:1003700025E0AAEFB1E001C01D92AE30B207E1F76F
:1003800011E0C6EAD1E004C02197FE010E94A02D31
:10039000C43AD107C9F70E944A250C94EC2F0C945B
:1003A00000008091A004882371F08091B1049091A5
:1003B000B20463E070E00E948C2DCB016CED70E024
:1003C0000E94C42608958091A104882349F06FEF0C
:1003D00070E080E090E00E94C4260E94CD2608953F
:1003E00040E050E060E070E080E090E00E94DD25B9
:1003F00008950E94692748E750E062E070E080E0DD
:1004000090E00E94ED1049E850E060E070E081E08B
:1004100090E00E94ED104FE850E060E070E082E074
:1004200090E00E94ED1048E950E060E070E083E069
:1004300090E00E94ED1043EA50E063E170E08091AB
:100440000505909106050E94ED104091050550911B
:10045000060563E170E080E090E00E946011809109
:100460009804882351F08091050590910605019725
:10047000909306058093050544C080919A048823D3
:1004800051F080910505909106050196909306051F
:100490008093050536C080919704882391F180915F
:1004A0000505909106058130910521F481E0809346
:1004B000090527C0029799F48BE090E090937700AC
:1004C0008093760081E090E0909306058093050587
:1004D00068EC70E080E090E00E94D21B12C08EE0D9
:1004E00090E0909377008093760081E090E0909385
:1004F00006058093050568EC70E080E090E00E94BE
:10050000D21B80910505909106058430910539F440
:1005100083E090E0909306058093050508951816F2
:10052000190634F081E090E090930605809305056C
:10053000089545EA50E060E070E080E090E00E94BD
:10054000ED104FEA50E06DE070E080E090E00E9436
:10055000ED1044EB50E060E070E081E090E00E943C
:10056000ED104AEB50E060E070E082E090E00E9425
:10057000ED104FEB50E060E070E083E090E00E940F
:10058000ED1043EA50E063E170E080910505909141
:1005900006050E94ED1080919804882351F0809107
:1005A0000505909106050197909306058093050532
:1005B00084C080919A04882351F080910505909120
:1005C00006050196909306058093050576C08091F7
:1005D0009904882399F08CE090E0909377008093C1
:1005E000760068EC70E080E090E00E94D21B81E031
:1005F00090E09093060580930505089580919B04F3
:10060000882399F08CE090E09093770080937600B7
:1006100068EC70E080E090E00E94D21B81E090E006
:10062000909306058093050508958091970488238B
:1006300071F180910505909106058130910559F47D
:10064000109277001092760068EC70E080E090E005
:100650000E94D21B32C0029769F485E090E090932B
:1006600077008093760068EC70E080E090E00E9474
:10067000D21B23C084E090E09093770080937600B3
:1006800068EC70E080E090E00E94D21B16C0809180
:100690009E04882391F08AE090E090937700809305
:1006A000760082E090E0909306058093050564EF64
:1006B00071E080E090E00E94D21B8091050590914E
:1006C0000605843091053CF083E090E090930605A8
:1006D0008093050508951816190634F081E090E01E
:1006E000909306058093050508954BEC50E065E076
:1006F00070E080E090E00E94ED1045ED50E060E198
:1007000070E080E090E00E94ED104AED50E060E083
:1007100070E081E090E00E94ED1042EE50E060E079
:1007200070E082E090E00E94ED104AEE50E060E060
:1007300070E083E090E00E94ED1043EA50E063E156
:1007400070E080910505909106050E94ED10809162
:100750009804882351F08091050590910605019732
:10076000909306058093050586C08091990488239F
:1007700099F08BE090E0909377008093760068EC9E
:1007800070E080E090E00E94D21B81E090E09093C6
:10079000060580930505089580919A04882351F0F9
:1007A000809105059091060501969093060580932A
:1007B000050561C080919B04882399F08BE090E04F
:1007C000909377008093760068EC70E080E090E092
:1007D0000E94D21B81E090E090930605809305056E
:1007E000089580919704882381F180910505909167
:1007F00006058130910569F483E090E090937700DD
:100800008093760068EC70E080E090E00E94D21B5C
:1008100032C0029769F486E090E09093770080936D
:10082000760068EC70E080E090E00E94D21B23C06C
:1008300087E090E0909377008093760068EC70E01A
:1008400080E090E00E94D21B16C080919E04882315
:1008500091F08AE090E0909377008093760082E0B8
:1008600090E0909306058093050564EF71E080E0C9
:1008700090E00E94D21B809105059091060584307E
:1008800091053CF083E090E0909306058093050588
:1008900008951816190634F081E090E0909306054B
:1008A0008093050508950F931F93CF93DF930E94C4
:1008B000C91B00910105109102052091030530919B
:1008C0000405DC01CB01801B910BA20BB30B893E0D
:1008D0009340A105B10560F00E94AE100E94C91BB3
:1008E00060930105709302058093030590930405BE
:1008F00080919E04882391F08CE090E090937700A3
:100900008093760081E090E0909306058093050542
:1009100064EF71E080E090E00E94D21B809176004D
:1009200090917700009709F0BFC080919D048111DC
:10093000E5C580919704811110C0809198048111C0
:100940000CC080919904811108C080919A04811192
:1009500004C080919B04882361F081E090E0909333
:1009600077008093760068EC70E080E090E00E9471
:10097000D21B42EF50E067E070E080E090E00E9420
:10098000ED1040E050E064E070E081E090E00E9413
:10099000601141E050E06BE070E081E090E00E9487
:1009A000601142E050E064E070E082E090E00E947C
:1009B000601143E050E06BE070E082E090E00E9464
:1009C000601144E050E064E070E083E090E00E9459
:1009D000601145E050E06BE070E083E090E00E9441
:1009E000601147E151E065E070E081E090E00E9435
:1009F000ED1047E151E06CE070E081E090E00E9492
:100A0000ED1047E151E065E070E082E090E00E9487
:100A1000ED1047E151E06CE070E082E090E00E9470
:100A2000ED1047E151E065E070E083E090E00E9466
:100A3000ED1047E151E06CE070E083E090E00E944F
:100A4000ED10C7ECD4E0488150E066E070E081E052
:100A500090E00E946011498150E06DE070E081E01B
:100A600090E00E9460114A8150E066E070E082E010
:100A700090E00E9460114B8150E06DE070E082E0F8
:100A800090E00E9460114C8150E066E070E083E0ED
:100A900090E00E9460114D8150E06DE070E083E0D5
:100AA00090E00E9460113CC58130910509F0BFC003
:100AB00080919D04811128C580919704811110C0F7
:100AC0008091980481110CC080919904811108C013
:100AD00080919A04811104C080919B04882361F065
:100AE00082E090E0909377008093760068EC70E06D
:100AF00080E090E00E94D21B42EF50E067E070E09F
:100B000080E090E00E94ED1046E050E064E070E08C
:100B100081E090E00E94601147E050E06BE070E0FF
:100B200081E090E00E94601148E050E064E070E0F5
:100B300082E090E00E94601149E050E06BE070E0DC
:100B400082E090E00E9460114AE050E064E070E0D2
:100B500083E090E00E9460114BE050E06BE070E0B9
:100B600083E090E00E94601147E151E065E070E0B1
:100B700081E090E00E94ED1047E151E06CE070E010
:100B800081E090E00E94ED1047E151E065E070E007
:100B900082E090E00E94ED1047E151E06CE070E0EF
:100BA00082E090E00E94ED1047E151E066E070E0E5
:100BB00083E090E00E94ED1047E151E06DE070E0CD
:100BC00083E090E00E94ED10C7ECD4E04E8150E04D
:100BD00066E070E081E090E00E9460114F8150E09B
:100BE0006DE070E081E090E00E946011488550E087
:100BF00066E070E082E090E00E946011498550E07C
:100C00006DE070E082E090E00E9460114A8550E063
:100C100067E070E083E090E00E9460114B8550E057
:100C20006EE070E083E090E00E94601179C4823051
:100C3000910509F080C280919D0481116BC480915F
:100C40009704811110C08091980481110CC080918B
:100C50009904811108C080919A04811104C0809187
:100C60009B04882351F0109277001092760068EC74
:100C700070E080E090E00E94D21B42EF50E067E01D
:100C800070E080E090E00E94ED104CE050E063E006
:100C900070E082E090E00E9460114DE050E06AE078
:100CA00070E082E090E00E9460114EE050E063E06E
:100CB00070E083E090E00E9460114FE050E06AE055
:100CC00070E083E090E00E94601147E151E065E050
:100CD00070E082E090E00E94ED1047E151E06CE0AE
:100CE00070E082E090E00E94ED1047E151E065E0A5
:100CF00070E083E090E00E94ED1047E151E06CE08D
:100D000070E083E090E00E94ED10C7ECD4E04C85E9
:100D100050E066E070E082E090E00E9460114D8556
:100D200050E06DE070E082E090E00E9460114E853E
:100D300050E066E070E083E090E00E9460114F8533
:100D400050E06DE070E083E090E00E946011E8C345
:100D50008091980481110CC080919904811108C080
:100D600080919A04811104C080919B04882361F0D2
:100D700081E090E0909377008093760068EC70E0DB
:100D800080E090E00E94D21B42EF50E067E070E00C
:100D900080E090E00E94ED1040E050E064E070E000
:100DA00081E090E00E94601141E050E06BE070E073
:100DB00081E090E00E94601142E050E064E070E069
:100DC00082E090E00E94601143E050E06BE070E050
:100DD00082E090E00E94601144E050E064E070E046
:100DE00083E090E00E94601145E050E06BE070E02D
:100DF00083E090E00E94601147E151E065E070E01F
:100E000081E090E00E94ED1047E151E06CE070E07D
:100E100081E090E00E94ED1047E151E065E070E074
:100E200082E090E00E94ED1047E151E06CE070E05C
:100E300082E090E00E94ED1047E151E065E070E053
:100E400083E090E00E94ED1047E151E06CE070E03B
:100E500083E090E00E94ED10C7EDD4E04881598115
:100E600066E070E081E090E00E9460114A815B8161
:100E70006DE070E081E090E00E9460114C815D8146
:100E800066E070E082E090E00E9460114E815F8138
:100E90006DE070E082E090E00E9460114885598525
:100EA00066E070E083E090E00E9460114A855B8517
:100EB0006DE070E083E090E00E94601131C38091AA
:100EC000980481110CC080919904811108C080910F
:100ED0009A04811104C080919B04882361F082E010
:100EE00090E0909377008093760068EC70E080E06B
:100EF00090E00E94D21B42EF50E067E070E080E09B
:100F000090E00E94ED1046E050E064E070E081E087
:100F100090E00E94601147E050E06BE070E081E0FB
:100F200090E00E94601148E050E064E070E082E0F0
:100F300090E00E94601149E050E06BE070E082E0D8
:100F400090E00E9460114AE050E063E070E083E0CE
:100F500090E00E9460114BE050E06AE070E083E0B6
:100F600090E00E94601147E151E065E070E081E0AF
:100F700090E00E94ED1047E151E06CE070E081E00C
:100F800090E00E94ED1047E151E065E070E082E002
:100F900090E00E94ED1047E151E06CE070E082E0EB
:100FA00090E00E94ED1047E151E065E070E083E0E1
:100FB00090E00E94ED1047E151E06CE070E083E0CA
:100FC00090E00E94ED10C7EDD4E04C855D8566E0B1
:100FD00070E081E090E00E9460114E855F856DE0D9
:100FE00070E081E090E00E9460114889598966E0D4
:100FF00070E082E090E00E9460114A895B896DE0B8
:1010000070E082E090E00E9460114C895D8966E0AA
:1010100070E083E090E00E9460114E895F896DE08E
:1010200070E083E090E00E9460117AC280919804A1
:1010300081110CC080919904811108C080919A049B
:10104000811104C080919B04882351F01092770095
:101050001092760068EC70E080E090E00E94D21B75
:1010600042EF50E067E070E080E090E00E94ED1019
:101070004CE050E063E070E082E090E00E9460119C
:101080004DE050E06AE070E082E090E00E94601184
:101090004EE050E063E070E083E090E00E94601179
:1010A0004FE050E06AE070E083E090E00E94601161
:1010B00047E151E065E070E082E090E00E94ED10D1
:1010C00047E151E06CE070E082E090E00E94ED10BA
:1010D00047E151E065E070E083E090E00E94ED10B0
:1010E00047E151E06CE070E083E090E00E94ED1099
:1010F000C7EDD4E0488D598D66E070E082E090E065
:101100000E9460114A8D5B8D6DE070E082E090E09E
:101110000E9460114C8D5D8D66E070E083E090E090
:101120000E9460114E8D5F8D6DE070E083E090E075
:101130000E946011F5C18330910561F548EF50E0E0
:1011400065E070E080E090E00E94ED104091BD0409
:101150005091BE0460E070E081E090E00E94601178
:1011600040E051E060E070E082E090E00E94ED102D
:1011700043EA50E063E170E082E090E00E94ED100D
:1011800080919704882309F4CBC18BE594E00E94F9
:101190004B0FC6C184309105D9F44AE051E064E0B8
:1011A00070E080E090E00E94ED1046E151E060E0E8
:1011B00070E082E090E00E94ED104091B9045091FF
:1011C000BA0462E070E082E090E00E946011A8C181
:1011D0008530910509F085C049E151E066E070E095
:1011E00080E090E00E94ED104EE151E060E070E0A0
:1011F00081E090E00E94ED104091B7045091B80456
:1012000068E070E081E090E00E94601146E251E009
:1012100060E070E082E090E00E94ED104CE251E06E
:1012200064E070E082E090E00E94ED104091B10433
:101230005091B20466E070E082E090E00E9460119C
:101240004FE251E06AE070E082E090E00E94ED1031
:101250004091AD045091AE046CE070E082E090E00B
:101260000E9460114091A00450E060E170E082E0D3
:1012700090E00E94601142E351E060E070E083E0A2
:1012800090E00E94ED104CE251E064E070E083E0F9
:1012900090E00E94ED104091A9045091AA0466E0EC
:1012A00070E083E090E00E9460114FE251E06AE05C
:1012B00070E083E090E00E94ED104091A70450910F
:1012C000A8046CE070E083E090E00E94601140911F
:1012D000A60450E060E170E083E090E00E946011BD
:1012E0001FC18630910509F0E3C047E351E066E095
:1012F00070E080E090E00E94ED1040E050E060E09F
:1013000070E081E090E00E94601147E151E061E00F
:1013100070E081E090E00E94ED10C7E9D4E04881E0
:1013200050E062E070E081E090E00E94601141E0F6
:1013300050E060E070E082E090E00E94601147E1E0
:1013400051E061E070E082E090E00E94ED104981A0
:1013500050E062E070E082E090E00E94601142E0C4
:1013600050E060E070E083E090E00E94601147E1AF
:1013700051E061E070E083E090E00E94ED104A816E
:1013800050E062E070E083E090E00E94601143E092
:1013900050E068E070E081E090E00E94601147E179
:1013A00051E069E070E081E090E00E94ED104B8137
:1013B00050E06AE070E081E090E00E94601144E05B
:1013C00050E068E070E082E090E00E94601147E148
:1013D00051E069E070E082E090E00E94ED104C8105
:1013E00050E06AE070E082E090E00E94601145E029
:1013F00050E068E070E083E090E00E94601147E117
:1014000051E069E070E083E090E00E94ED104D81D2
:1014100050E06AE070E083E090E00E94601146E0F6
:1014200050E061E170E081E090E00E94601147E1EE
:1014300051E062E170E081E090E00E94ED104E81A9
:1014400050E063E170E081E090E00E94601147E0CD
:1014500050E061E170E082E090E00E94601147E1BD
:1014600051E062E170E082E090E00E94ED104F8177
:1014700050E063E170E082E090E00E94601148E09B
:1014800050E061E170E083E090E00E94601147E18C
:1014900051E062E170E083E090E00E94ED10488549
:1014A00050E063E170E083E090E00E94601138C09A
:1014B0000797B1F54FE351E063E070E080E090E022
:1014C0000E94ED1040918C0450918D0463E070E017
:1014D00081E090E00E9460114DE451E065E070E031
:1014E00082E090E00E94ED104091A00450E065E0A1
:1014F00070E083E090E00E94601112C08091970438
:10150000882309F425CC34CC80919704882309F4EE
:10151000D6CCE5CC80919704882309F487CD96CD6D
:10152000DF91CF911F910F91089548E950E063E05A
:1015300070E080E090E00E94ED1046E551E060E050
:1015400070E081E090E00E94ED104EE551E060E037
:1015500070E082E090E00E94ED1044E651E060E02F
:1015600070E083E090E00E94ED1049E651E065E014
:1015700070E083E090E00E94ED104DE651E069E0FC
:1015800070E083E090E00E94ED1043EA50E063E1F8
:1015900070E080910505909106050E94ED10809104
:1015A0009704882381F1809105059091060581308B
:1015B000910599F48FE090E0909377008093760006
:1015C00081E090E0909306058093050568EC70E05B
:1015D00080E090E00E94D21B54C0029709F051C0F5
:1015E0008DE090E0909377008093760081E090E02A
:1015F000909306058093050568EC70E080E090E02C
:101600000E94D21B3EC080919804882381F0809173
:1016100005059091060501979093060580930505B1
:1016200068EC70E080E090E00E94D21B2AC08091BC
:101630009A04882381F08091050590910605019612
:10164000909306058093050568EC70E080E090E0DB
:101650000E94D21B16C080919E04882391F08AE0DC
:1016600090E0909377008093760083E090E09093F1
:1016700006058093050564EF71E080E090E00E942C
:10168000D21B8091050590910605833091053CF0B1
:1016900082E090E090930605809305050895181662
:1016A000190634F081E090E09093060580930505DB
:1016B0000895CF92DF92EF92FF9246E551E065E008
:1016C00070E080E090E00E94ED1049E751E060E0BA
:1016D00070E081E090E00E94ED104FE751E067E09C
:1016E00070E081E090E00E94ED1040910002509186
:1016F000010269E070E081E090E00E94601141E841
:1017000051E06CE070E081E090E00E94ED1043E871
:1017100051E060E070E083E090E00E94ED10809185
:10172000FF01882349F04AE851E067E070E083E078
:1017300090E00E94ED1008C04DE851E067E070E0D5
:1017400083E090E00E94ED1042E951E060E070E03B
:1017500082E090E00E94ED10409166005091670099
:1017600067E070E082E090E00E94601143EA50E0A0
:1017700063E170E080910505909106050E94ED10EF
:10178000809197048823C1F10E94C91B6B017C01E1
:101790001DC00E944F2A8091FF01882359F060915B
:1017A00066007091670080910002909101020E9492
:1017B000C4260CC0609166007091670040E050E064
:1017C00080910002909101020E94DD250E94C91BB8
:1017D000DC01CB018C199D09AE09BF09803197420C
:1017E000A105B105B0F240E050E060E070E080E0BB
:1017F00090E00E94DD25A8C080919804882381F0A4
:1018000080910505909106050197909306058093B8
:10181000050568EC70E080E090E00E94D21B94C067
:1018200080919904882389F180910505909106059E
:101830008130910551F480910002909101020A9744
:10184000909301028093000219C08330910559F4EE
:101850008091FF01882319F01092FF010FC081E0F1
:101860008093FF010BC0029749F48091660090912C
:1018700067000A97909367008093660068EC70E0B9
:1018800080E090E00E94D21B5FC080919A04882380
:1018900081F08091050590910605019690930605CB
:1018A0008093050568EC70E080E090E00E94D21B18
:1018B0004BC080919B04882389F18091050590910C
:1018C00006058130910551F480910002909101024A
:1018D0000A96909301028093000219C0833091050B
:1018E00059F48091FF01882319F01092FF010FC075
:1018F00081E08093FF010BC0029749F4809166005C
:10190000909167000A96909367008093660068EC58
:1019100070E080E090E00E94D21B16C080919E048F
:10192000882391F08EE090E090937700809376008A
:1019300081E090E0909306058093050568EC70E0E7
:1019400080E090E00E94D21B8091050590910605F1
:10195000843091053CF083E090E0909306058093FD
:10196000050509C01816190634F081E090E090933F
:10197000060580930505FF90EF90DF90CF900895C6
:101980004EE551E066E070E080E090E00E94ED10EE
:1019900048E951E060E070E081E090E00E94ED10E5
:1019A00043EA50E063E170E08091050590910605FF
:1019B0000E94ED10409174005091750069E070E054
:1019C00082E090E00E9460114FE751E067E070E034
:1019D00082E090E00E94ED1041E851E06CE070E0A0
:1019E00082E090E00E94ED1043EA51E060E070E098
:1019F00083E090E00E94ED10809197048823F1F03D
:101A00008091050590910605019719F40E94CD2655
:101A100008958091FE01882319F01092FE0103C001
:101A200081E08093FE0168EC70E080E090E00E942D
:101A3000D21B8091FE010E94E426089580919904B2
:101A4000882381F0809174009091750001979093A4
:101A500075008093740068EC70E080E090E00E9474
:101A6000D21B0895809198048823D1F080910505B8
:101A700090910605019739F483E090E09093060574
:101A80008093050506C081E090E090930605809361
:101A9000050568EC70E080E090E00E94D21B08959C
:101AA00080919B04882381F080917400909175004F
:101AB0000196909375008093740068EC70E080E06C
:101AC00090E00E94D21B089580919A048823D1F05F
:101AD0008091050590910605019739F483E090E027
:101AE000909306058093050506C081E090E09093F1
:101AF00006058093050568EC70E080E090E00E94A8
:101B0000D21B089580919E04882391F08EE090E08E
:101B1000909377008093760082E090E090930605A2
:101B20008093050568EC70E080E090E00E94D21B95
:101B3000089580910505909106059093FD0180938D
:101B4000FC0180917600909177009093FB01809347
:101B5000FA010E944F2A8091760090917700883098
:101B600091051CF40E94530422C08A30910519F497
:101B70000E94F9011CC08B30910519F40E94990252
:101B800016C08C30910519F40E94750310C08D3079
:101B9000910519F40E94C00C0AC08E30910519F409
:101BA0000E94950A04C00F9711F40E94590B2091CE
:101BB000FA013091FB01809176009091770028170F
:101BC000390771F42091FC013091FD0180910505E8
:101BD000909106052817390719F480919F04811107
:101BE0000E94AE1008954CEA51E060E070E080E0A1
:101BF00090E00E94ED1042EB51E060E070E081E087
:101C000090E00E94ED1045EB51E063E070E081E070
:101C100090E00E94ED1042EB51E060E070E082E065
:101C200090E00E94ED1045EB51E063E070E082E04F
:101C300090E00E94ED104BEB51E069E070E082E033
:101C400090E00E94ED104BEB51E060E070E083E02B
:101C500090E00E94ED1043EA50E063E170E0809173
:101C60000505909106050E94ED1080910505909163
:101C700006059093FD018093FC0120919704222397
:101C800009F43FC08130910571F01CF4892B39F0C3
:101C900067C082309105C9F0039769F161C081E0A6
:101CA000809309055DC081E08093090540E050E024
:101CB0006FEF70E080E090E00E94DD256EEE72E054
:101CC00080E090E00E94D21B4BC081E08093090528
:101CD0000E94CD2640E050E06FEF70E080E090E0A1
:101CE0000E94DD256EEE72E080E090E00E94D21B43
:101CF0000E94CD2635C081E0809309050E94CD2643
:101D00002FC020919804222391F001972AF09093FC
:101D100006058093050504C010920605109205057E
:101D200068EC70E080E090E00E94D21B19C0209126
:101D30009A042223A9F00196843091052CF4909303
:101D400006058093050506C083E090E090930605A4
:101D50008093050568EC70E080E090E00E94D21B63
:101D600020910505309106058091FC019091FD01BF
:101D70002817390711F00E94AE100895462B47B975
:101D8000806C86B9349BFECF84B125B190E0922B54
:101D90000895FC011182108212820895CF92DF9281
:101DA000EF92FF921F93CF93DF93EC0160E670E018
:101DB00085E094E00E94782061E085E094E00E9454
:101DC000922085E094E00E948E20182F882391F0C5
:101DD0008FE192E00E94461F84E092E00E94461F3D
:101DE00085E192E00E94461F8CE192E00E94461F2E
:101DF00010E048C041E050E060E670E085E094E02B
:101E00000E9429210E94C91B6B017C011EC00E94F7
:101E1000C91BDC01CB018C199D09AE09BF09893EA4
:101E20009340A105B10588F08FE192E00E94461F22
:101E300084E092E00E94461F8DE092E00E94461FDF
:101E40008CE192E00E94461F1DC085E094E00E9454
:101E5000582118161906DCF685E094E00E946021EE
:101E60002A81222371F028813981820F931F8F3FAD
:101E700091051CF08F5F910904C0992314F48150DF
:101E80009F4F182F812FDF91CF911F91FF90EF90DF
:101E9000DF90CF9008951F93CF93DF93EC011982C9
:101EA00018821A821BE020C0CE010E94CE0E282F7D
:101EB00030E0398328836AE070E080E090E00E949F
:101EC000D21B115089F48FE192E00E94461F84E0FA
:101ED00092E00E94461F82EC91E00E94461F8CE136
:101EE00092E00E94461F0DC0888199810097E1F21F
:101EF00020E830E0A901481B590B5983488381E051
:101F00008A83DF91CF911F910895CF93DF9300D003
:101F100000D0CDB7DEB7982F907F8295807F2CE0E0
:101F2000290F2C83985F9B839CE0980F9A83885F8E
:101F3000898341E050E0BE016C5F7F4F8AE40E94DC
:101F4000FE1361E070E080E090E00E94D21B41E06F
:101F500050E0BE016D5F7F4F8AE40E94FE1361E096
:101F600070E080E090E00E94D21B41E050E0BE01B2
:101F70006E5F7F4F8AE40E94FE1361E070E080E0B4
:101F800090E00E94D21B41E050E0BE016F5F7F4FA6
:101F90008AE40E94FE1361E070E080E090E00E941D
:101FA000D21B0F900F900F900F90DF91CF9108955B
:101FB000CF93DF9300D000D0CDB7DEB7982F907FBE
:101FC0008295807F2DE0290F2C83975F9B839DE076
:101FD000980F9A83875F898341E050E0BE016C5F70
:101FE0007F4F8AE40E94FE1361E070E080E090E0A1
:101FF0000E94D21B41E050E0BE016D5F7F4F8AE43A
:102000000E94FE1361E070E080E090E00E94D21B2D
:1020100041E050E0BE016E5F7F4F8AE40E94FE13F4
:1020200061E070E080E090E00E94D21B41E050E06F
:10203000BE016F5F7F4F8AE40E94FE1361E070E093
:1020400080E090E00E94D21B0F900F900F900F90B5
:10205000DF91CF91089580910202882341F0813071
:1020600041F0823041F0833041F494E507C090E0C4
:1020700005C090E403C094E101C090E080910302A8
:102080008058890F0E94850F0895CF93DF9300D069
:10209000CDB7DEB78A838C5F898341E050E0BE0113
:1020A0006F5F7F4F8AE40E94FE1361E070E080E082
:1020B00090E00E94D21B41E050E0BE016E5F7F4F76
:1020C0008AE40E94FE1361E070E080E090E00E94EC
:1020D000D21B0F900F90DF91CF91089562E370E0D3
:1020E00080E090E00E94D21B80E30E94451061E0F6
:1020F00070E080E090E00E94D21B80E30E944510D7
:1021000061E070E080E090E00E94D21B80E30E94DA
:10211000451061E070E080E090E00E94D21B80E218
:102120000E94451061E070E080E090E00E94D21BC8
:1021300088E20E94850F8FE00E94850F86E00E9452
:10214000850F82E00E94850F81E00E94850F10922A
:102150000302109202020E942B10089581E00E9457
:10216000850F62E070E080E090E00E94D21B08954D
:102170008831910514F4809303026430710514F4DE
:10218000609302020E942B1008950E94D80F809144
:1021900003028F5F883118F4809303020CC0109201
:1021A0000302809102028F5F843018F48093020250
:1021B00002C0109202020E942B100895CF93DF9369
:1021C000EC018881882331F021960E94C510899105
:1021D0008111FBCFDF91CF910895CF93DF939C01C5
:1021E000CB01EA01B9010E94B810CE010E94DE10B5
:1021F000DF91CF910895CF93DF93EC01992334F4CD
:102200008DE20E94C510D195C195D109CE0160E142
:1022100077E20E948C2DD82FC92F662379F080E3B6
:10222000860F0E94C5108D2F9C2F68EE73E00E94D0
:102230008C2DD82FC92F80E3860F0AC068EE73E07B
:102240000E948C2DD82FC92F662361F180E3860F61
:102250000E94C5108D2F9C2F64E670E00E948C2D8B
:10226000C82FD92F80E3860F0E94C5108C2F9D2F79
:102270006AE070E00E948C2DC82F80E3860F0BC0AF
:102280008C2F9D2F6AE070E00E948C2DC82F662352
:1022900021F080E3860F0E94C51080E38C0F0E941E
:1022A000C5100BC064E670E00E948C2DC82FD92F9A
:1022B000662331F380E3860FD7CFDF91CF91089566
:1022C000CF93DF939C01CB01EA01B9010E94B810C2
:1022D000CE010E94FB10DF91CF9108956230D0F4BF
:1022E00041110CC025B36E5F81E090E002C0880F01
:1022F000991F6A95E2F7822B85BB089525B36E5F1F
:1023000081E090E002C0880F991F6A95E2F78095FE
:10231000822385BB0895623070F4862F442329F010
:102320006FEF8C5F0E94091804C060E08C5F0E9410
:1023300009180E9421190895683050F4462F60E46E
:1023400082E00E94BE0E9695879596958795089592
:1023500080E00895CF936430F8F427B370E06C5FA9
:102360007F4F81E090E0062E02C0880F991F0A94EB
:10237000E2F7382F3095232327BB98B3892B88BBEE
:1023800086B390E002C0959587956A95E2F798B379
:10239000932398BB817079C06C3070F4C62F40963F
:1023A0000E94B31690E06CEF6C0F02C09595879574
:1023B0006A95E2F7817069C0643108F046C084EF25
:1023C000860F843010F544B32FE0261B30E02C5FDD
:1023D0003F4F81E090E0022E02C0880F991F0A94BF
:1023E000E2F7582F5095352F342334BB95B3892B02
:1023F00085BB83B390E002C0959587952A95E2F757
:1024000095B3952395BB817040C021B3605170E0B6
:102410006C5F7F4F81E090E0062E02C0880F991F0D
:102420000A94E2F7382F3095232321BB92B3892BEE
:1024300082BB80B390E002C0959587956A95E2F7DC
:1024400092B3932392BB817020C06C31E8F42AB31D
:10245000645181E090E0062E02C0880F991F0A9413
:10246000E2F7382F309523232ABB9BB3892B8BBBF4
:1024700089B390E002C0959587956A95E2F79BB382
:1024800093239BBB817001C080E0CF910895CF93CF
:10249000DF936430D0F427B36C5F81E090E0A0E07C
:1024A000B0E004C0880F991FAA1FBB1F6A95D2F71E
:1024B000282B27BB442321F028B3822B88BB67C07D
:1024C00028B38095822388BB62C06C3050F4EC0145
:1024D00060966450CE010E949516CE010E94DE16D1
:1024E00056C06431C8F584EF860F8430D8F424B325
:1024F00033E1361B81E090E0A0E0B0E004C0880F3B
:10250000991FAA1FBB1F3A95D2F7282B24BB44233F
:1025100021F025B3822B85BB3AC025B38095822359
:1025200085BB35C021B36C5081E090E0A0E0B0E005
:1025300004C0880F991FAA1FBB1F6A95D2F7282BCA
:1025400021BB442321F022B3822B82BB20C022B3C3
:102550008095822382BB1BC06C31C8F42AB36451BE
:1025600081E090E0A0E0B0E004C0880F991FAA1FAE
:10257000BB1F6A95D2F7282B2ABB442321F02BB32B
:10258000822B8BBB04C02BB3809582238BBBDF9146
:10259000CF91089568E370E085E094E00E94782090
:1025A00085E094E00E948E20882371F080E892E01C
:1025B0000E94461F89E492E00E94461F8DE792E048
:1025C0000E94461F80E008956FE370E085E094E08C
:1025D0000E94782085E094E00E948E20882371F08C
:1025E00080E892E00E94461F87E292E00E94461F28
:1025F0008DE792E00E94461F80E0089581E00895F3
:10260000CF92DF92EF92FF920F931F93CF93DF93BE
:102610007C01EC018C01005F1F4FCE010E9441162E
:102620002496C017D107C9F7E7016096CE010E9432
:102630008C16670183E1C80ED11CC6010E948C165E
:10264000789488E090E00E94211F84B38C6084BB62
:1026500085B38C6085BB8AB3807F8ABB9AB39F7039
:102660009ABB97B39F7097BB85E094E00E94772157
:10267000882329F185E094E00E947A2185E094E0A6
:102680000E947721823068F080E892E00E94461F25
:1026900085E792E00E94461F8DE792E00E94461F68
:1026A0000EC0813061F480E892E00E94461F8BE604
:1026B00092E00E94461F8DE792E00E94461F85E04F
:1026C00094E00E9463200E94D9180E9443146FE393
:1026D000CE010E94921668E3C6010E9492168701FD
:1026E000C0E0A6016C2FC8010E944616CF5F0C5FA8
:1026F0001F4FC430B1F70E94B71BC7010E94CA1216
:10270000DF91CF911F910F91FF90EF90DF90CF90CD
:1027100008958FEF9FEF06B607FC02C00197D9F727
:1027200081B1887F0895846886BF0E9489130895C7
:10273000CF92DF92EF92FF920F931F93CF93DF938D
:10274000C62F662319F0613021F006C000E218E1BF
:1027500005C008E410E402C000E010E00F2EF4E130
:10276000EF2EF12CF02D982F9160D92ED82FDE7FEF
:102770000F2EF4E9CF2EF02D80E20E9493138830C3
:1027800031F0803121F084E886BF80E01FC0C111A4
:1027900002C0D3B903C0C13009F4D3B880E00E94AD
:1027A0009313811791F0801305C081E0E81AF108B6
:1027B000C6BE06C0883321F084E986BF80E006C02B
:1027C0001E141F04CCF280E001C081E0DF91CF91A4
:1027D0001F910F91FF90EF90DF90CF90089583B9F4
:1027E00080E00E949313883231F091E0803309F049
:1027F00090E0892F01C081E081700895EF92FF92EF
:102800000F931F93CF93DF9314161506FCF46115F5
:102810007105F1F07A018B0160E00E949813882322
:10282000C1F0E8010E0D1F1D89910E94EF13811167
:1028300007C091B1987F983361F094E996BF09C0C1
:10284000C017D10789F794E996BF03C081E001C0A2
:1028500081E0DF91CF911F910F91FF90EF9008954C
:10286000789480B393B392959F70807F892B9091D9
:102870000402E92FF0E0EB5FFD4F80839F5F9093B0
:102880000402F894089581B38F7081BB84B38F7074
:1028900084BB82B3806F82BB85B3806F85BB80E0D1
:1028A00090E0FC01EB5FFD4F108201968F3F910598
:1028B000C1F7089580E090E00895089520916800A0
:1028C000222341F090931603809315030E94D91898
:1028D000109268000895CF93DF9320910D033091FB
:1028E0000E03C0910503D09106032C173D0709F490
:1028F00062C0AE01421B530B8091690090E08417C7
:10290000950724F4E901C80FD91F0AC06627772765
:10291000681B790B461757071CF4E901C81BD90B34
:10292000DD23B4F441E060E080911503909116033B
:102930000E94951640E061E0809115039091160386
:102940000E9495166C2F619580E00E9409182CC09A
:102950001C161D06ACF440E060E0809115039091D8
:1029600016030E94951641E061E080911503909155
:1029700016030E9495166C2F80E00E94091814C05F
:1029800040E060E080911503909116030E94951637
:1029900040E061E080911503909116030E94951626
:1029A0006C2F80E00E940918D0930E03C0930D0392
:1029B00081E08093040320910F0330911003C091B4
:1029C0000703D09108032C173D0709F462C0AE013C
:1029D000421B530B8091690090E08417950724F403
:1029E000E901C80FD91F0AC066277727681B790B32
:1029F000461757071CF4E901C81BD90BDD23B4F4B3
:102A000041E062E080911503909116030E949516B3
:102A100040E063E080911503909116030E949516A3
:102A20006C2F619581E00E9409182CC01C161D06B0
:102A3000ACF440E062E080911503909116030E948F
:102A4000951641E063E080911503909116030E9472
:102A500095166C2F81E00E94091814C040E062E0D6
:102A600080911503909116030E94951640E063E053
:102A700080911503909116030E9495166C2F81E0AA
:102A80000E940918D0931003C0930F0381E0809334
:102A900004032091110330911203C0910903D091D6
:102AA0000A032C173D0709F46CC0AE01421B530BFF
:102AB0008091690090E08417950724F4E901C80F1C
:102AC000D91F0AC066277727681B790B4617570757
:102AD0001CF4E901C81BD90BDD23B4F441E064E028
:102AE00080911503909116030E94951640E065E0D1
:102AF00080911503909116030E9495166C2F619595
:102B000082E00E9409182CC01C161D06ACF440E09F
:102B100064E080911503909116030E94951641E0A0
:102B200065E080911503909116030E9495166C2F15
:102B300082E00E94091814C040E064E0809115030F
:102B4000909116030E94951640E065E08091150370
:102B5000909116030E9495166C2F82E00E9409182E
:102B6000EDE0F3E0D583C48381E0809304038681A4
:102B70009781C0910B03D0910C038C179D0769F4CA
:102B800073C08091130390911403C0910B03D091F3
:102B90000C038C179D0709F463C0AE01481B590B49
:102BA0002091690030E02417350724F4EC01C20FAE
:102BB000D31F0AC066277727621B730B4617570778
:102BC0001CF4EC01C21BD30BDD23B4F441E066E03E
:102BD00080911503909116030E94951640E067E0DE
:102BE00080911503909116030E9495166C2F6195A4
:102BF00083E00E9409182CC01C161D06ACF440E0AE
:102C000066E080911503909116030E94951641E0AD
:102C100067E080911503909116030E9495166C2F22
:102C200083E00E94091814C040E066E0809115031B
:102C3000909116030E94951640E067E0809115037D
:102C4000909116030E9495166C2F83E00E9409183C
:102C5000D0931403C093130381E08093040304C052
:102C600080910403882351F00E942119809115035B
:102C7000909116030E94DE1610920403DF91CF910B
:102C80000895FC011082128211820895FF920F9321
:102C90001F93CF93DF93EC01F62E8A01CA010E94A5
:102CA0005E141A830983F88288E28B83DF91CF91C7
:102CB0001F910F91FF900895161617067CF4DC0102
:102CC00013962C9130E0621773074CF09B016F3F15
:102CD000710529F024F02FEF30E001C09B01332370
:102CE0008CF42130BFEF3B075CF0FC01438150E0E6
:102CF0005195419551094217530724F49A0102C096
:102D000021E03FEFDC01EC91F0E0EE0FFF1FEB5F05
:102D1000FC4F318320830895FC01108281E0818380
:102D200012820895FC0162830895FC0120814423EE
:102D300051F081E090E002C0880F991F6A95E2F798
:102D4000822B80830AC081E090E002C0880F991F27
:102D50006A95E2F78095822380838081821711F043
:102D600081E081830895CF93DF93EC016A8185E050
:102D700094E00E946E2041E06A8185E094E00E9428
:102D8000252185E094E00E946021888385E094E01D
:102D90000E948E20882371F087EC92E00E94461FEB
:102DA00086EA92E00E94461F84EC92E00E94461F51
:102DB00080E001C08881DF91CF910895CF93DF93A8
:102DC000FC012181222331F1EC0185E094E00E9495
:102DD000742181111FC06A8185E094E00E946E20F9
:102DE00041E050E0BE0185E094E00E942D2185E0A5
:102DF00094E00E948E20882361F087EC92E00E948C
:102E0000461F88E892E00E94461F84EC92E00E94F0
:102E1000461F1982DF91CF910895CF92DF92EF92F2
:102E2000FF920F931F93CF93DF9341155105C1F08C
:102E30006A018C01E62EF72EC0E0D0E0D7016D913B
:102E40007D01D801ED91FC910190F081E02DC80148
:102E50000995892B39F02196CC16DD0679F702C049
:102E6000C0E0D0E0CE01DF91CF911F910F91FF9094
:102E7000EF90DF90CF9008956115710581F0FB010F
:102E800001900020E9F73197AF01461B570BDC0199
:102E9000ED91FC910280F381E02D0995089580E089
:102EA00090E00895DC01ED91FC910280F381E02D2A
:102EB00042E050E060ED71E0099508950F931F9393
:102EC000CF93DF93EC010E943C178C01CE010E944E
:102ED0005217800F911FDF91CF911F910F9108958D
:102EE0001F920F920FB60F9211242F933F934F937F
:102EF0005F938F939F93EF93FF93809117038111BB
:102F00004BC080911903882341F1209170003091CA
:102F1000710080916C0090916D0040916E00509115
:102F20006F00509371004093700040916A0050917F
:102F30006B0050936D0040936C0030936F002093B2
:102F40006E0090936B0080936A001092190388B30F
:102F5000807F88BB82B3837F82BB80911703E0911F
:102F60006C00F0916D00E80FF11D808198B3282F5F
:102F70002F70922B98BB92B3869586958C70892B77
:102F800082BB80911703E0917000F0917100E80F0F
:102F9000F11D808183BD1EC0E0916C00F0916D0039
:102FA000E80FF11D808128B3982F9F709095922390
:102FB00098BB92B3869586958C708095892382BB49
:102FC00080911703E0917000F0917100E80FF11DFE
:102FD000808183BD809117038F5F80931703E091F9
:102FE0007000F0917100E80FF11D9081992311F0AC
:102FF000873011F410921703FF91EF919F918F91F9
:103000005F914F913F912F910F900FBE0F901F90A6
:103010001895863028F4E82FF0E0E45CFC4F6083DC
:103020000895CF92DF92EF92FF920F931F93CF9369
:10303000DF930F2EF5E0EF2EF12CF02DC12CD12CCB
:1030400070E02CC08C2D9D2D272FFC01EA5CFC4FDD
:1030500030818C010F5F1F4FF801EA5CFC4F40810B
:10306000A32FB0E0A45CBC4FE42FF0E0E45CFC4F85
:103070006C915081561740F4FC01EA5CFC4F408390
:10308000F801EA5CFC4F30832F5F822F90E08C17B1
:103090009D07DCF281E0E81AF10829F0E7011E142F
:1030A0001F0484F2F7CFDF91CF911F910F91FF9012
:1030B000EF90DF90CF900895809119038111FCCF9C
:1030C00081E0809319030895CF92DF92EF92FF92EF
:1030D0000F931F93CF93DF93E0916A00F0916B0001
:1030E0001082A6E3B3E04CE353E030E020E061E07F
:1030F00070E00AE010E09D91E92FF0E0E45CFC4F05
:1031000080818B30A8F1C0916A00D0916B00FB01E7
:1031100002C0EE0FFF1F9A95E2F798819E2B9883CD
:1031200090E0821B91098530910554F4C0916A00AA
:10313000D0916B00C30FD11D8881E82BE88318C0A4
:103140008A3091050CF4802FC32ED12CE0906A00B8
:10315000F0906B00EC0CFD1CE701E983E0916E0040
:10316000F0916F00E601CE0FDF1F8883280F3F5FCD
:10317000A417B50709F0BFCF832F90E0E0916E0050
:10318000F0916F00E80FF91F20952083363040F44E
:1031900020916E0030916F00F901E80FF91F118244
:1031A000DF91CF911F910F91FF90EF90DF90CF9023
:1031B0000895CF9380911803811141C0F894E6E3FC
:1031C000F3E01082C1E0C18382E0828383E08383E5
:1031D00084E0848385E085830E94641820917000D8
:1031E0003091710080916C0090916D0040916E0063
:1031F00050916F00509371004093700040916A00AD
:1032000050916B0050936D0040936C0030936F00B1
:1032100020936E0090936B0080936A0087B38F6059
:1032200087BB81B38C6081BB85B58B6085BD89B759
:10323000806889BF8FEF83BD7894C0931803CF91C6
:103240000895809119038111FCCF0E9411180E94EA
:1032500064180E945C180895862F0E94351F81E033
:1032600090E00895E2E4F3E01382128283EE91E0AD
:1032700091838083148208951F920F920FB60F924C
:1032800011242F933F938F939F93EF93FF938091FC
:1032900047038823E1F08091480390E081509F4FDD
:1032A0009BBD8ABD30914903E0914A03F0914B03E5
:1032B000208181E090E002C0880F991F3A95E2F7E3
:1032C0008095909530E082239323808318C02091CD
:1032D00048038DEE92E1821B91099BBD8ABD30911E
:1032E0004903E0914A03F0914B03208181E090E093
:1032F00002C0880F991F3A95E2F7822B8083909144
:10330000470381E0892780934703FF91EF919F91C5
:103310008F913F912F910F900FBE0F901F90189596
:10332000FC01108214821382168215821782128287
:103330001182089568E370E085E094E00E947820AF
:1033400085E094E00E948E2091E0811190E0892F29
:103350000895CF92DF92EF92FF92CF93DF93FC011B
:103360002081222309F44CC0EC016181728185E047
:1033700094E00E94782060E085E094E00E94922032
:1033800085E094E00E948E20811139C069817A81A4
:1033900041E050E085E094E00E9429210E94C91B91
:1033A0006B017C011BC00E94C91BDC01CB018C1985
:1033B0009D09AE09BF09893E9340A105B10570F092
:1033C00089E093E00E94461F8FEE92E00E94461F24
:1033D00086E093E00E94461F20E012C085E094E062
:1033E0000E94582118161906F4F685E094E00E9410
:1033F000602121E08F3F91051CF020E001C020E01A
:10340000822FDF91CF91FF90EF90DF90CF900895C2
:10341000CF92DF92EF92FF92CF93DF93FC01208156
:10342000222309F475C02781213009F074C0EC0112
:103430006181728185E094E00E94782062E085E0FD
:1034400094E00E94922085E094E00E948E208823E0
:1034500079F089E093E00E94461F85EE92E00E9499
:10346000461F86E093E00E94461F80E090E055C032
:1034700069817A8142E050E085E094E00E94292150
:103480000E94C91B6B017C011CC00E94C91BDC018E
:10349000CB018C199D09AE09BF09893E9340A10556
:1034A000B10578F089E093E00E94461F89ED92E033
:1034B0000E94461F86E093E00E94461F80E090E055
:1034C0002CC085E094E00E9458210297F4F285E038
:1034D00094E00E9460219C838B8385E094E00E94AD
:1034E000602120E030E03B81820F931F9C838B831F
:1034F000009729F48D819E819C838B8304C0029761
:1035000010F41C821B8283E08F838B819C8105C019
:1035100080E090E002C080E090E0DF91CF91FF90EA
:10352000EF90DF90CF900895CF93DF93D62FC42FE5
:10353000FC016181728185E094E00E9478206D2F0A
:1035400085E094E00E9492206C2F85E094E00E9438
:10355000922085E094E00E948E20882361F089E02B
:1035600093E00E94461F8FEC92E00E94461F86E087
:1035700093E00E94461FDF91CF9108951F93CF9350
:10358000DF93FC011081112379F08781882311F0EA
:10359000833049F4EF0141E560E0CF010E94941AC5
:1035A00081E08F8301C010E0812FDF91CF911F91C7
:1035B0000895CF93DF93EC010E94BE1A882319F07F
:1035C0008B819C810BC0CE010E94A919811103C07F
:1035D0008B819C8103C0CE010E94081ADF91CF919C
:1035E0000895462F603208F04FE161E00E94941A7E
:1035F0000895FC019B01ADECBCEC0E94A62D9695B4
:103600008795969587959695879596838583A3E864
:10361000BEEB0E94A62D96958795929582958F7008
:1036200089279F708927AC01415051094F3F5105AF
:1036300019F010F04FEF50E062E0CF010E94941AB1
:103640000895CF93DF93EC0170E060597F4F7A8348
:1036500069831C821B821E821D821F8260E00E9481
:10366000F11A2FEF81EE94E0215080409040E1F775
:1036700000C000006FE37AE0CE010E94F91A2FEF3C
:1036800081EE94E0215080409040E1F700C00000BE
:10369000CE010E949A1981110DC089E093E00E9429
:1036A000461F8BEF92E00E94461F86E093E00E9447
:1036B000461F0BC02FEF80E792E0215080409040E2
:1036C000E1F700C0000081E08883DF91CF91089589
:1036D0001F920F920FB60F9211242F933F934F9387
:1036E0005F936F937F938F939F93AF93BF93EF936A
:1036F000FF9380914E0390914F03A0915003B0919E
:1037000051030196A11DB11D80934E0390934F0369
:10371000A0935003B093510380914D038A3079F404
:1037200080914C03811109C081E080934C0378940F
:103730000E946B14F89410924C0310924D038091E8
:103740004D038F5F80934D030E943014FF91EF91E2
:10375000BF91AF919F918F917F916F915F914F91A9
:103760003F912F910F900FBE0F901F90189583B728
:103770008B6083BF89B7826089BF8AEF8CBF10924C
:103780004E0310924F0310925003109251037894FD
:10379000089560914E0370914F0380915003909172
:1037A000510308950F931F938B019C0140914E0389
:1037B00050914F03609150037091510380914E03DB
:1037C00090914F03A0915003B0915103841B950B2E
:1037D000A60BB70B80179107A207B30778F31F91C9
:1037E0000F910895019739F0880F991F880F991F3D
:1037F00002970197F1F708951092BF0381E080933B
:10380000BD031092BC03A89AA99A0898099888E465
:1038100080B985E486BF089586B78A7B86BFA8985D
:10382000A9980895413208F046C09091BF039111C4
:10383000FCCF31E03093BF032093BD032FEF2093E3
:10384000520310929703240F209396033093BE03E4
:103850002091BE03880F822B8093BE038091BC030E
:10386000813059F41092BC038091BE0383B906B62F
:1038700003FCFACF85EC86BF02C085EE86BF80913F
:10388000BF038130E1F380919703841710F44091D6
:103890009703442389F0A8E9B3E0FB018FEF840F7D
:1038A00090E00196680F791F8D918193E617F707D5
:1038B000D9F7942F01C090E0892F0895CF92DF921D
:1038C000EF92FF920F93413208F061C0CC24C39471
:1038D000D12CE12CFC2C07C091E0C91AD108E108D9
:1038E000F10809F456C03091BF033111F5CF92E0D1
:1038F0009093BF030093BD039FEF909352031092E8
:10390000970340939603442371F0FB01A8E9B3E0C9
:10391000415050E04F5F5F4F640F751F91919D9331
:10392000E617F707D9F71092BE039091BE03880FF0
:10393000892B8093BE038091BC03813059F410928F
:10394000BC038091BE0383B906B603FCFACF85ECB5
:1039500086BF02C085EE86BF41E050E060E071E0C6
:1039600005C04150510961097109A9F02223C9F02C
:103970008091BF038230A9F4F4CF8091520380324A
:1039800061F080915203803351F034E00EC031E099
:103990000CC034E00AC034E008C032E006C033E0B6
:1039A00004C0809152038F3F41F7832F0F91FF9006
:1039B000EF90DF90CF90089540917403262F30E070
:1039C000240F311D21323105ECF42091BF03243046
:1039D000D9F4662381F0A82FB92F80E090E03091D0
:1039E00074032D91FC01EA58FC4FE30FF11D208375
:1039F00001968617A0F380917403680F6093740397
:103A000080E0089581E0089582E0089585ED86BF05
:103A100006B604FCFDCF1092BF03089585EC86BF67
:103A20001092BF030895CF930E940C1C84B38C7F27
:103A300084BB85B3836085BB989B3CC0999B3CC08D
:103A4000A898A09A80E001C08F5F989B47C08A3FEA
:103A5000D9F7C1E050C08B3088F5A19AA99890E0C1
:103A600001C09F5F83B3C82FC27081FF3BC09A3FE4
:103A7000C1F7C1E040C09B3018F5A198A99A80E039
:103A800001C08F5F999931C08A3FD9F7C1E033C037
:103A90008B30C0F4A098A89A80E001C08F5F9899FD
:103AA00027C08A3FD9F7C1E026C08B3068F40E9456
:103AB000FC1B21C0C1E01FC0C1E01DC0C4E01BC091
:103AC000C2E019C0C3E017C0C5E015C0C1E013C013
:103AD000C1E011C0C1E00FC0C1E00DC08A3F09F0D4
:103AE000BACFF4CF9A3F39F6F3CF8A3F89F6F2CFB7
:103AF0008A3FD9F6F1CF8C2FCF910895CF930E94B2
:103B00000C1CF894A198A99A84E690E00E94F21BFC
:103B1000C4E6A098A89A84E690E00E94F21BA898B8
:103B2000A09A84E690E00E94F21B999B21C0A9987C
:103B3000A19A84E690E00E94F21BA098A89A84E6DD
:103B400090E00E94F21BA198A99A84E690E00E945E
:103B5000F21BA898A09A84E690E00E94F21B999B21
:103B600007C0A098A89A84E690E00E94F21B02C0C9
:103B7000C15079F688EE93E00E94F21B0E94FC1B74
:103B80007894CF9108951F920F920FB60F9211243F
:103B90002F933F934F935F936F937F938F939F9355
:103BA000AF93BF93EF93FF9381B1E82FE87F8E2F00
:103BB00090E0893C910508F0E2C0FC01E65DFF4F12
:103BC0000C94A02D8091BE0383B985EC86BFD7C02D
:103BD0009091970380919603981770F4E091970362
:103BE00081E08E0F80939703F0E0E856FC4F8081D0
:103BF00083B985EC86BFC3C08091BD03882319F0CB
:103C00000E94061DBCC081E08093BC0384EA86BF8D
:103C10001092BF03B4C080E2809352030E94061D3D
:103C2000AEC080E3809352030E94061DA8C088E3C3
:103C3000809352030E940E1DA2C0E091970381E081
:103C40008E0F8093970383B1F0E0E856FC4F80839A
:103C50009091970380919603981718F485EC86BF8E
:103C60008EC085E886BF8BC0E091970381E08E0F00
:103C70008093970383B1F0E0E856FC4F80838091F6
:103C8000BD03882319F00E94061D79C081E080934E
:103C9000BC0384EA86BF1092BF0371C00E94061D58
:103CA0006EC083E08093BF031092530385EC86BF00
:103CB00066C080915303803270F4E091530381E039
:103CC0008E0F8093530383B1F0E0EC5AFC4F808356
:103CD00085EC86BF54C085E886BF51C00E940E1D8A
:103CE00080915303803230F4E0915303F0E0EC5ABA
:103CF000FC4F10826091530370E0E091B803F091A3
:103D0000B90384E593E009951092530338C085E820
:103D100086BF35C084E08093BF0310927503109274
:103D20007403E091BA03F091BB0309958091740389
:103D3000811105C081E08093740310927603E091B5
:103D4000750381E08E0F80937503F0E0EA58FC4F15
:103D5000808183B99091750380917403981718F44A
:103D600085EC86BF0CC085E886BF09C085EC86BFA0
:103D70001092BF0304C0109252030E94061DFF91CF
:103D8000EF91BF91AF919F918F917F916F915F91D3
:103D90004F913F912F910F900FBE0F901F9018954C
:103DA0001F920F920FB60F9211242F938F939F9310
:103DB000EF93FF938BB12CB18871E091C203EF5F59
:103DC000EF719091C103E91739F0E093C203F0E07D
:103DD000EB53FC4F208301C082E09091C003892BFC
:103DE0008093C003FF91EF919F918F912F910F903E
:103DF0000FBE0F901F9018951F920F920FB60F9243
:103E000011248F939F93EF93FF939091C40380911C
:103E1000C303981761F0E091C303EF5FEF71E09384
:103E2000C303F0E0EB51FC4F80818CB901C0559881
:103E3000FF91EF919F918F910F900FBE0F901F9068
:103E400018951092C4031092C3031092C2031092EB
:103E5000C10399231CF422E02BB99F7790BD89B947
:103E600088E98AB986E880BD08952091C4032F5F50
:103E70002F719091C3032917E1F3E22FF0E0EB518A
:103E8000FC4F80832093C403559A0895CF93DF930A
:103E9000EC012196FC018491882339F00E94351FA2
:103EA000FE01849121968111F9CFDF91CF91089580
:103EB000FC01108208950F931F93CF93DF9300D0DE
:103EC000CDB7DEB78C0119821A8264E370E085E019
:103ED00094E00E94782042E050E0BE016F5F7F4F87
:103EE00085E094E00E942D2185E094E00E948E20E0
:103EF000882389F083E293E00E94461F81E193E0EA
:103F00000E94461F89E193E00E94461F80E293E0F1
:103F10000E94461F09C060ED77E080E090E00E94BB
:103F2000D21B81E0F80180830F900F90DF91CF9139
:103F30001F910F9108950F931F93CF93DF931F92BB
:103F4000CDB7DEB7FC018081882309F444C064E367
:103F500070E085E094E00E947820198241E050E012
:103F6000BE016F5F7F4F85E094E00E942D2185E0C8
:103F700094E00E948E20882399F083E293E00E94CF
:103F8000461F81E193E00E94461F89E193E00E9471
:103F9000461F80E293E00E94461F80E090E01DC033
:103FA00042E064E385E094E00E94252185E094E00E
:103FB0000E9460218C0185E094E00E94602120E055
:103FC00030E0382F020F131F85E094E00E948E200E
:103FD000802F912F02C080E090E00F90DF91CF9171
:103FE0001F910F9108951F93CF93DF931F92CDB729
:103FF000DEB7FC0180818823E1F1162F64E370E0D5
:1040000085E094E00E94782062E0610F698341E0DE
:1040100050E0BE016F5F7F4F85E094E00E942D214C
:1040200085E094E00E948E20882391F083E293E063
:104030000E94461F81E193E00E94461F89E193E0C0
:104040000E94461F80E293E00E94461F80E012C05B
:1040500041E064E385E094E00E94252185E094E05E
:104060000E946021182F85E094E00E948E20812F0D
:1040700001C080E00F90DF91CF911F910895CF9301
:10408000DF9300D0CDB7DEB7FC0180818823B1F08B
:1040900081E089836A8364E370E085E094E00E94B4
:1040A000782042E050E0BE016F5F7F4F85E094E0F2
:1040B0000E942D2185E094E00E948E200F900F90A9
:1040C000DF91CF91089510922B0410922A04109240
:1040D0000804109207040E94FC1B089581E080935D
:1040E00006046093290410920804109207040895AE
:1040F0000E946E2008950F93062F21E0409107043F
:1041000069E074E0809129040E945E1C109208040A
:1041100010920704109206040F91089561E00E9426
:104120007B200895CF93DF931F92CDB7DEB76983CD
:1041300080910604882399F0809107048032B8F4B6
:1041400080910804E82FF0E0E75FFB4F60838F5F0A
:10415000809308048093070481E090E00AC061E046
:10416000CE0101960E94DC1C81E090E002C080E05C
:1041700090E00F90DF91CF9108954F925F926F92F0
:104180007F92AF92BF92CF92EF92FF920F931F93C5
:10419000CF93DF935C01F62ED42F28013901EE2056
:1041A00031F10E946E208E2D843008F083E0CFEF35
:1041B000C80F8823B1F08C2F880F880F880FA301B8
:1041C000920104C056954795379527958A95D2F761
:1041D000CA01B901C5010E9492209C2FC1509111C2
:1041E000EACF60E0C5010E947B2081110FC04D2FF6
:1041F000D13208F040E22C2D6CE274E08F2D0E9449
:10420000121C10922B0480932A0401C080E0DF91DD
:10421000CF911F910F91FF90EF90CF90BF90AF90F3
:104220007F906F905F904F900895CF92EF920F9391
:104230001F93C22EE12C00E010E098010E94BD20E7
:104240001F910F91EF90CF90089521E00E941521CA
:10425000089521E00E9415210895CF92DF92EF92F8
:10426000FF920F931F93CF93DF937C018B016A0121
:1042700080910604882371F04115510579F0EB0116
:10428000040F151F6991C7010E949220C017D10722
:10429000C9F704C0642FC8010E94DC1CC601DF916D
:1042A000CF911F910F91FF90EF90DF90CF900895E5
:1042B00080912A0490E020912B04821B910908959B
:1042C00090912B0480912A04981750F4E92FF0E084
:1042D000E45DFB4F208130E09F5F90932B0402C090
:1042E0002FEF3FEFC90108958091060408950E94C1
:1042F000131D08950E947E1D08950F931F938091B2
:104300000705882379F08091080581110FC00E946C
:10431000C91B60934C0470934D0480934E0490939A
:104320004F040CC080910805882341F010924C0482
:1043300010924D0410924E0410924F048091D204BA
:10434000811108C08091D304811104C08091D404EC
:10435000882321F081E08093BF0424C080914C0425
:1043600090914D04A0914E04B0914F04892B8A2B5B
:104370008B2B09F472C10E94C91B00914C0410914F
:104380004D0420914E0430914F04DC01CB01801B81
:10439000910BA20BB30B8B3F9105A105B10510F05A
:1043A0001092BF048091D104882321F081E0809392
:1043B000C00423C080914C0490914D04A0914E0400
:1043C000B0914F04892B8A2B8B2BB9F00E94C91B0B
:1043D00000914C0410914D0420914E0430914F04F3
:1043E000DC01CB01801B910BA20BB30B8B3F910522
:1043F000A105B10510F01092C0048091D004811184
:1044000008C08091CF04811104C08091CE0488231C
:1044100021F081E08093C10424C080914C049091EC
:104420004D04A0914E04B0914F04892B8A2B8B2B05
:1044300009F418C10E94C91B00914C0410914D044D
:1044400020914E0430914F04DC01CB01801B910B75
:10445000A20BB30B8B3F9105A105B10510F0109293
:10446000C1048091CD04882321F081E08093C204AF
:1044700023C080914C0490914D04A0914E04B091C2
:104480004F04892B8A2B8B2BB9F00E94C91B0091FA
:104490004C0410914D0420914E0430914F04DC01E6
:1044A000CB01801B910BA20BB30B8B3F9105A10598
:1044B000B10510F01092C2048091CC04811108C0A3
:1044C0008091CB04811104C08091CA04882321F01B
:1044D00081E08093C30424C080914C0490914D04EA
:1044E000A0914E04B0914F04892B8A2B8B2B09F499
:1044F000BEC00E94C91B00914C0410914D04209134
:104500004E0430914F04DC01CB01801B910BA20BB8
:10451000B30B8B3F9105A105B10510F01092C304B8
:104520008091C904882321F081E08093C40423C0D2
:1045300080914C0490914D04A0914E04B0914F0491
:10454000892B8A2B8B2BB9F00E94C91B00914C043C
:1045500010914D0420914E0430914F04DC01CB01A9
:10456000801B910BA20BB30B8B3F9105A105B105ED
:1045700010F01092C4048091C804811108C0809189
:10458000C704811104C08091D604882321F081E002
:104590008093C50424C080914C0490914D04A09157
:1045A0004E04B0914F04892B8A2B8B2B09F464C0E5
:1045B0000E94C91B00914C0410914D0420914E049F
:1045C00030914F04DC01CB01801B910BA20BB30B8C
:1045D0008B3F9105A105B10510F01092C5048091A3
:1045E000D504882321F081E08093C60423C0809104
:1045F0004C0490914D04A0914E04B0914F04892B2E
:104600008A2B8B2BB9F00E94C91B00914C0410918E
:104610004D0420914E0430914F04DC01CB01801BEE
:10462000910BA20BB30B8B3F9105A105B10510F0C7
:104630001092C604EFEBF4E047EC54E020E030E0E9
:104640008191882311F02F5F3F4FE417F507C1F7E1
:10465000309351042093500414C08091D1048111EF
:10466000A5CECBCE8091CD048111FFCE25CF8091F8
:10467000C904811159CF7FCF8091D5048111B3CF67
:10468000D9CF1F910F9108958091BF04882319F10C
:104690008091C004811183C08091C10481117FC0C9
:1046A0008091C20481117BC08091C304811177C0C5
:1046B0008091C404811173C08091C50481116FC0C1
:1046C0008091C60481116BC084EB90E090937300DD
:1046D0008093720008958091C004811158C0809128
:1046E000C104882309F456C08091C204811152C0CC
:1046F0008091C30481114EC08091C40481114AC0CD
:104700008091C504811146C08091C604811142C0C8
:104710008EE091E0909373008093720008958091F1
:10472000C204811115C08091C304882389F080914F
:10473000C40481110DC08091C504811109C080910C
:10474000C604811105C01092730010927200089582
:104750008091C104811123C08091C20481111FC0C6
:104760008091C30481111BC08091C404811117C0C2
:104770008091C504882399F08091C60481110FC0EF
:104780008AE590E090937300809372000895811100
:1047900006C0DECF8091C1048111DACFC0CF089569
:1047A0009091BF049923D1F08091C0048111ABC0D6
:1047B0008091C1048111E9C08091C2048111E0C0DF
:1047C0008091C3048111DCC08091C4048111D8C0E0
:1047D0008091C504882309F49BC005C08091C6045C
:1047E0008111B9C0BEC087E890E0909373008093B8
:1047F000720008958091C104882309F48EC08091CD
:10480000C20481118AC08091C304811186C0809145
:10481000C404811182C08091C50481110BC07DC088
:104820002091C004222369F001C0282F8091C10487
:104830008823E1F081EE90E0909373008093720002
:1048400008953091C1043111AAC02091C2042111F0
:10485000A1C03091C304332309F469C02091C50479
:10486000222309F469C0811167C015C03091C404C6
:104870003323C1F006C0322F04C0282F02C0282FD6
:1048800030E08091C304882311F005C0282F809167
:10489000C504882349F08DE290E0909373008093E3
:1048A0007200089581E002C0832F31E0911116C09B
:1048B000811114C08091C104882309F442C0809101
:1048C000C304882309F442C0311140C08091C5045B
:1048D000882309F43BC0211139C00EC08091C20465
:1048E000882309F462C08091C104811105C08091C0
:1048F000C304882309F459C08BE391E090937300BB
:104900008093720008958091C60481116CCF72CF9C
:104910008091C604811167CF6DCF2091C004211111
:1049200089CF25C08091C4048111A5CFD7CF209114
:10493000C4042111ABCF1FC02091C4042111ABCFFF
:104940001AC08091C2048111D2CF08958091C2040F
:104950008111D2CF08952091C504222309F460CF9C
:1049600042CF2091C004211160CF822F6ACF9111D4
:10497000D9CF892F66CF9111B1CF392F282F9ACF58
:104980008091C60481112FCFC8CF8091C6048111B8
:104990002ACF35CF2091C40421116FCFD2CF3091CF
:1049A000C40431116CCF282F8ACF0895CF92DF92A3
:1049B000EF92FF9280910805882331F080910705DE
:1049C000811102C00E9444238091500490915104AF
:1049D000029714F00E94D0230E94C91B6B017C0136
:1049E0000CC00E94EB2640E050E06FEF70E0809139
:1049F0007200909173000E94DD250E94C91BDC01AA
:104A0000CB018C199D09AE09BF098C3D9540A105CC
:104A1000B10538F3FF90EF90DF90CF9008950E949A
:104A20006E100E94AE1089E694E00E945B1F64EB5A
:104A300089E694E00E943F2062E28EE594E00E94C5
:104A4000921685E094E00E94632060E081E694E0A5
:104A50000E94211B40E063E08AE694E00E94471236
:104A60006AEF70E080E090E00E94D21B67E08AE687
:104A700094E00E949C112FEF30E0281B3109309305
:104A8000F8042093F70441E063E08AE694E00E9492
:104A9000471208950E940F256BEE71E082E493E0C7
:104AA0000E945E170E94990D809109058823A1F349
:104AB0000E94AE1000E810E0FF24F394C7E9D4E0B0
:104AC00062EF71E082E493E00E945E170E94812A07
:104AD0001093BE040093BD0480910805882319F04B
:104AE0000E94D6241AC08091B9049091BA04889784
:104AF00074F48091AD049091AE040197C19720F4B5
:104B0000F092A1041092A0040E94D10106C060E0BE
:104B100070E084EB90E00E94C4268F81882381F2AC
:104B20008885882369F240E050E060E070E080E032
:104B300090E00E94DD251092090510920605109262
:104B400005050E94E4270E94F30D80910905882342
:104B5000C1F30E94AE10B4CFCF93DF938AE694E006
:104B60000E94001389E694E00E94581F81E694E0B9
:104B70000E9490198EE594E00E948C168BE594E0DB
:104B80000E94C90EC2E5D4E01B821E821D828EE106
:104B900090E098878F8388E691E00E94B52D9983F5
:104BA000888384E58A83DF91CF91089580915204B0
:104BB000909153040E944A2E08954F925F926F92F3
:104BC0007F928F929F92AF92BF92CF92DF92EF929D
:104BD000FF920F931F93CF93DF938B01EA01BC01E8
:104BE000990F880B990B0E94EF2B2BED3FE049E4C6
:104BF00050E40E947B2C20E030E044E353E40E9428
:104C0000452B2B013C0166277727601B710B072E74
:104C1000000C880B990B0E94EF2B4B015C0124EEDA
:104C20003BEC46E150E4C301B2010E94D82A0E9445
:104C3000E82C9B01AC01C501B4010E947B2C23E34D
:104C400033E343E35FE30E94452B0E94B72B6B01E4
:104C50007C012BED3FE049E45FE3C301B2010E9418
:104C6000D82A0E94E82C9B01AC01C501B4010E9426
:104C70007B2C23E333E343E35FE30E94452B0E9455
:104C8000B72BE0E8F4E09E012C193D093183208325
:104C90009E01260F371F33832283CE01861B970B7D
:104CA00095838483CC0EDD1ED782C682EF010F2E42
:104CB000F8E8EF2EF4E0FF2EF02DC12CD12C21913D
:104CC0003191C901992324F488279927821B930BDA
:104CD000C816D9060CF46C01EE15FF0581F7B80172
:104CE000110F880B990B0E94EF2B4B015C01B60151
:104CF000DD0C880B990B0E94EF2B9B01AC01C501C9
:104D0000B4010E94452B4B015C0168817981072E1B
:104D1000000C880B990B0E94EF2BA50194010E94B7
:104D20007B2C0E94B72B69937993CE15DF0569F729
:104D3000C0E8D4E0688179818AE694E00E945C163C
:104D40006A817B818EE694E00E945C166C817D8195
:104D500082E794E00E945C166E817F8186E794E092
:104D60000E945C16CE01DF91CF911F910F91FF90B1
:104D7000EF90DF90CF90BF90AF909F908F907F90FB
:104D80006F905F904F9008954091BD045091BE0484
:104D9000405851090E94DD25089541E061E08AE60E
:104DA00094E00E948B116091740070917500072E41
:104DB000000C880B990B0E94D21B40E061E08AE650
:104DC00094E00E948B110895482F60E08AE694E0F9
:104DD0000E948B11089589E694E00E949B1FE7ECE6
:104DE000F4E020E030E0AC01022E02C0559547957A
:104DF0000A94E2F7417041932F5F3F4F2031310514
:104E000091F72091080520930705892B21F081E077
:104E10008093080508951092080508950F931F9335
:104E20000E94C91B0091F9041091FA042091FB041F
:104E30003091FC046017710782079307D9F08091C5
:104E4000BD049091BE049093BC048093BB048BE599
:104E500094E00E94CE0E90E09093BE048093BD0437
:104E60000E94C91B6093F9047093FA048093FB04B9
:104E70009093FC041F910F9108950F931F930E942C
:104E8000C91B0091FD041091FE042091FF04309194
:104E90000005DC01CB01801B910BA20BB30B8B3FF8
:104EA0009105A105B10590F081E694E00E94D91A20
:104EB0009093BA048093B9040E94C91B6093FD04C7
:104EC0007093FE048093FF04909300051F910F914F
:104ED0000895EF92FF920F931F93CF93DF93C7E94B
:104EE000D4E0AEE8B4E000EA14E0FE0181918D93D5
:104EF000E017F107D9F78EE594E00E94B3160F2E64
:104F0000F7E9EF2EF4E0FF2EF02D982F9170F701C6
:104F1000908381FB992790F9918382FB992790F9DF
:104F2000928383FB992790F9938384FB992790F9C7
:104F3000948385FB992790F9958386FB882780F9D0
:104F4000868360E08AE694E00E94AA11F7018783D5
:104F500061E08AE694E00E94AA11F701808791E05F
:104F60008881882311F0188201C098832196C01788
:104F7000D107B1F7DF91CF911F910F91FF90EF9083
:104F80000895CF93DF9360E08AE694E00E94AA112F
:104F9000C7E9D4E08F8361E08AE694E00E94AA1119
:104FA0009F81992319F010929E0403C091E0909381
:104FB0009E04882319F010929F0403C081E080931F
:104FC0009F04DF91CF9108950E9469270E940E27C8
:104FD0000895AF92BF92CF92DF92EF92FF920F931C
:104FE0001F93CF93DF935C010F2EF9EEEF2EF3E0CA
:104FF000FF2EF02DCC24CA94DC2CF501628170E0E8
:1050000042E050E085E094E00E94292185E094E0B0
:105010000E946021C82F85E094E00E946021182F33
:1050200000E0C8018C2BEC01209741F4CD2889F5D4
:105030008AE090E00E94F21B80E03EC0C5359AEA0B
:10504000D90749F4E5E5CE16EAEADE0611F5F501E1
:10505000148281E031C0C635FAEADF0749F485E5FC
:10506000C8168AEAD806A9F481E0F501848324C031
:10507000CA3AF5E5DF0769F4F501628170E041E0C5
:1050800050E085E094E00E94292185E094E00E94B0
:105090006021F1E0EF1AF1086E0109F0AECF80E473
:1050A00093E00E94461F8BE293E00E94461F8DE32F
:1050B00093E00E94461F80E0DF91CF911F910F91F6
:1050C000FF90EF90DF90CF90BF90AF9008952F9218
:1050D0003F924F925F926F927F928F929F92AF9288
:1050E000BF92CF92DF92EF92FF920F931F93CF93D5
:1050F000DF9300D000D000D0CDB7DEB74C017C8369
:105100006B83FC018381811106C0C4010E94E927E1
:10511000811103C0DFC0F4011382F40116821582ED
:10512000312CC9C0F401628170E042E050E085E0BA
:1051300094E00E94292185E094E00E946021182FCC
:1051400085E094E00E946021782E612C5301A12A11
:10515000F5E5AF16FAEABF0639F481E0F40183837E
:10516000148285819681BBC0F6E5AF16FAEABF06C8
:1051700039F481E0F4018383848385819681AFC013
:10518000A114B10421F4F40185819681A8C0F40131
:10519000678170858581968168177907A0F4625EC2
:1051A0007F4F70876783CB01880F991F680F791F26
:1051B000660F771F660F771F808191810E94E22E14
:1051C000F40191838083F401858196818C01000F25
:1051D000111F800F911F880F991F880F991F008141
:1051E00011819801280F391F3A83298369011D8293
:1051F0001E82132DF4018481811107C0153028F01F
:10520000E981FA811386128623C0F401628170E07D
:1052100042E050E085E094E00E94292185E094E09E
:105220000E946021282E85E094E00E946021F82EE3
:10523000E12CC70182292D813E81280F391F3E8331
:105240002D83F601819391936F011F5F163091F6C4
:105250002D813E812A153B0531F4F401858196812B
:10526000019696838583F401628170E042E050E00C
:1052700085E094E00E94292185E094E00E9460216D
:10528000182F85E094E00E946021582E412CC20125
:10529000812B8535FAEA9F0719F4F40114820BC0BB
:1052A00086359A4A21F421E0F401248304C0F401F4
:1052B0008581968114C0F401858196812B813C8182
:1052C0008217930750F48238910508F42BCF80E0C1
:1052D00090E005C080E090E002C080E090E026967B
:1052E0000FB6F894DEBF0FBECDBFDF91CF911F91F7
:1052F0000F91FF90EF90DF90CF90BF90AF909F9075
:105300008F907F906F905F904F903F902F90089577
:10531000EF92FF920F931F93CF93DF930E94C91BCD
:105320000091B3041091B4042091B5043091B604F7
:10533000DC01CB01801B910BA20BB30B4C97A10599
:10534000B10508F4A5C08091B1049091B204909386
:10535000B0048093AF048091AD049091AE0490931B
:10536000AC048093AB040E94C91B6093B304709398
:10537000B4048093B5049093B60468EE73E082E5BC
:1053800094E00E9467289093B8048093B704109229
:10539000A0041092A1041092A604181619060CF08D
:1053A0005DC0E0915204F09153049C01220F331F21
:1053B000280F391F220F331F220F331F2E0F3F1FBD
:1053C000C0E0D0E080E090E011E060EF70E0DF014D
:1053D0004081518141305105E9F41093A00440917E
:1053E000A2045091A3044F5F5F4F5093A3044093D6
:1053F000A204E480F58042815381405A51095093C0
:10540000B2044093B104AB014E195F095093AE044E
:105410004093AD044D915C91119742305105C1F418
:105420001093A6044091A4045091A5044F5F5F4FD0
:105430005093A5044093A40412964D915C91139748
:10544000840F951F14964D915C911597C40FD51F2D
:105450003C96E217F30709F0BACF04C0C0E0D0E0F1
:1054600080E090E02091A4043091A504B9010E944D
:105470008C2DCB01805A91099093AA048093A904A2
:10548000CE01B9010E948C2D7093A8046093A704EB
:10549000DF91CF911F910F91FF90EF9008950F939F
:1054A0001F93CF930E94EB2607ED14E0C0E06C2F12
:1054B00089E694E00E94F31F90E0F80181939193B4
:1054C0008F01CF5FC03199F70E947D210E940E2786
:1054D0000E9469270E943D270E94882967E08AE68A
:1054E00094E00E949C112091F7043091F804280F59
:1054F000311D30938D0420938C04CF911F910F9117
:1055000008950F931F930E94EB260E947D210E9415
:1055100088298091080581113CC00E94C91B009117
:1055200088041091890420918A0430918B04DC0155
:10553000CB01801B910BA20BB30BC397A105B10547
:1055400040F10E94C91B6093880470938904809382
:105550008A0490938B040E94C12767E08AE694E056
:105560000E949C112091F7043091F804280F311DFE
:1055700030938D0420938C0440E061E08AE694E04F
:105580000E946E1140E060E08AE694E00E946E1195
:105590000CC041E061E08AE694E00E946E1141E0B7
:1055A00060E08AE694E00E946E111F910F910895C9
:1055B0005058BB27AA270E94F02A0C94412C0E9425
:1055C000332C38F00E943A2C20F039F49F3F19F424
:1055D00026F40C94302C0EF4E095E7FB0C942A2C66
:1055E000E92F0E94522C58F3BA17620773078407F9
:1055F000950720F079F4A6F50C94742C0EF4E09540
:105600000B2EBA2FA02D0B01B90190010C01CA017C
:10561000A0011124FF27591B99F0593F50F4503E27
:1056200068F11A16F040A22F232F342F4427585F19
:10563000F3CF469537952795A795F0405395C9F731
:105640007EF41F16BA0B620B730B840BBAF09150E9
:10565000A1F0FF0FBB1F661F771F881FC2F70EC088
:10566000BA0F621F731F841F48F48795779567955B
:10567000B795F7959E3F08F0B0CF9395880F08F047
:105680009927EE0F9795879508950E94592B0C94B2
:10569000412C0E943A2C58F00E94332C40F029F4FF
:1056A0005F3F29F00C942A2C51110C94752C0C940A
:1056B000302C0E94522C68F39923B1F3552391F3B7
:1056C000951B550BBB27AA2762177307840738F071
:1056D0009F5F5F4F220F331F441FAA1FA9F335D0CE
:1056E0000E2E3AF0E0E832D091505040E695001C82
:1056F000CAF72BD0FE2F29D0660F771F881FBB1F3C
:10570000261737074807AB07B0E809F0BB0B802D19
:10571000BF01FF2793585F4F3AF09E3F510578F045
:105720000C942A2C0C94752C5F3FE4F3983ED4F330
:10573000869577956795B795F7959F5FC9F7880F19
:10574000911D9695879597F90895E1E0660F771F6B
:10575000881FBB1F621773078407BA0720F0621BFC
:10576000730B840BBA0BEE1F88F7E09508950E9427
:10577000BE2B6894B1110C94752C08950E945A2C7C
:1057800088F09F5798F0B92F9927B751B0F0E1F002
:10579000660F771F881F991F1AF0BA95C9F714C0B2
:1057A000B13091F00E94742CB1E008950C94742CE7
:1057B000672F782F8827B85F39F0B93FCCF38695EB
:1057C00077956795B395D9F73EF490958095709548
:1057D00061957F4F8F4F9F4F0895E89409C097FBC5
:1057E0003EF490958095709561957F4F8F4F9F4FB8
:1057F0009923A9F0F92F96E9BB279395F6958795FC
:1058000077956795B795F111F8CFFAF4BB0F11F4BE
:1058100060FF1BC06F5F7F4F8F4F9F4F16C0882365
:1058200011F096E911C0772321F09EE8872F762F9B
:1058300005C0662371F096E8862F70E060E02AF0DC
:105840009A95660F771F881FDAF7880F96958795C8
:1058500097F9089597F99F6780E870E060E00895F0
:105860009FEF80EC089500240A9416161706180678
:105870000906089500240A94121613061406050654
:105880000895092E0394000C11F4882352F0BB0FE5
:1058900040F4BF2B11F460FF04C06F5F7F4F8F4F48
:1058A0009F4F089557FD9058440F551F59F05F3F83
:1058B00071F04795880F97FB991F61F09F3F79F032
:1058C00087950895121613061406551FF2CF4695B4
:1058D000F1DF08C0161617061806991FF1CF869536
:1058E0007105610508940895E894BB27662777271A
:1058F000CB0197F908950E948E2C0C94412C0E94A4
:10590000332C38F00E943A2C20F0952311F00C949F
:105910002A2C0C94302C11240C94752C0E94522C9F
:1059200070F3959FC1F3950F50E0551F629FF001F2
:10593000729FBB27F00DB11D639FAA27F00DB11D0B
:10594000AA1F649F6627B00DA11D661F829F222794
:10595000B00DA11D621F739FB00DA11D621F839F1B
:10596000A00D611D221F749F3327A00D611D231FF1
:10597000849F600D211D822F762F6A2F11249F573F
:1059800050409AF0F1F088234AF0EE0FFF1FBB1F42
:10599000661F771F881F91505040A9F79E3F510501
:1059A00080F00C942A2C0C94752C5F3FE4F3983E05
:1059B000D4F3869577956795B795F795E7959F5FAB
:1059C000C1F7FE2B880F911D9695879597F908953D
:1059D0009F930E94F22C0F9007FCEE5F0C941B2DFE
:1059E0000C94302C0E945A2CD8F3E894E0E0BB27AA
:1059F0009F57F0F02AED3FE049EC06C0EE0FBB0FD9
:105A0000661F771F881F28F0B23A62077307840762
:105A100028F0B25A620B730B840BE3959A9572F7D8
:105A2000803830F49A95BB0F661F771F881FD2F716
:105A300090480C94312DEF93E0FF07C0A2EA2AEDC5
:105A40003FE049EC5FEB0E94F02A0E94412C0F904E
:105A5000039401FC9058E6EEF1E00C943D2D9F3F3D
:105A600031F0915020F4879577956795B795880F19
:105A7000911D9695879597F908959F938F937F939E
:105A80006F93FF93EF939B01AC010E947B2CEF91EE
:105A9000FF910E94512D2F913F914F915F910C9456
:105AA0007B2CDF93CF931F930F93FF92EF92DF92A4
:105AB0007B018C01689406C0DA2EEF010E948E2CC7
:105AC000FE01E894A5912591359145915591A6F354
:105AD000EF010E94F02AFE019701A801DA9469F70C
